{
    "_format": "hh-sol-artifact-1",
    "contractName": "WizardToken",
    "sourceName": "contracts/internal/Wizards.sol",
    "abi": [
        {
            "inputs": [
                {
                    "internalType": "address",
                    "name": "_creatorsDAO",
                    "type": "address"
                },
                {
                    "internalType": "address",
                    "name": "_minter",
                    "type": "address"
                },
                {
                    "internalType": "contract IDescriptor",
                    "name": "_descriptor",
                    "type": "address"
                },
                {
                    "internalType": "contract ISeeder",
                    "name": "_seeder",
                    "type": "address"
                },
                {
                    "internalType": "contract IProxyRegistry",
                    "name": "_proxyRegistry",
                    "type": "address"
                },
                {
                    "internalType": "uint256",
                    "name": "_supply",
                    "type": "uint256"
                }
            ],
            "stateMutability": "nonpayable",
            "type": "constructor"
        },
        {
            "anonymous": false,
            "inputs": [
                {
                    "indexed": true,
                    "internalType": "address",
                    "name": "owner",
                    "type": "address"
                },
                {
                    "indexed": true,
                    "internalType": "address",
                    "name": "approved",
                    "type": "address"
                },
                {
                    "indexed": true,
                    "internalType": "uint256",
                    "name": "tokenId",
                    "type": "uint256"
                }
            ],
            "name": "Approval",
            "type": "event"
        },
        {
            "anonymous": false,
            "inputs": [
                {
                    "indexed": true,
                    "internalType": "address",
                    "name": "owner",
                    "type": "address"
                },
                {
                    "indexed": true,
                    "internalType": "address",
                    "name": "operator",
                    "type": "address"
                },
                {
                    "indexed": false,
                    "internalType": "bool",
                    "name": "approved",
                    "type": "bool"
                }
            ],
            "name": "ApprovalForAll",
            "type": "event"
        },
        {
            "anonymous": false,
            "inputs": [
                {
                    "indexed": false,
                    "internalType": "address",
                    "name": "creatorsDAO",
                    "type": "address"
                }
            ],
            "name": "CreatorsDAOUpdated",
            "type": "event"
        },
        {
            "anonymous": false,
            "inputs": [
                {
                    "indexed": true,
                    "internalType": "address",
                    "name": "delegator",
                    "type": "address"
                },
                {
                    "indexed": true,
                    "internalType": "address",
                    "name": "fromDelegate",
                    "type": "address"
                },
                {
                    "indexed": true,
                    "internalType": "address",
                    "name": "toDelegate",
                    "type": "address"
                }
            ],
            "name": "DelegateChanged",
            "type": "event"
        },
        {
            "anonymous": false,
            "inputs": [
                {
                    "indexed": true,
                    "internalType": "address",
                    "name": "delegate",
                    "type": "address"
                },
                {
                    "indexed": false,
                    "internalType": "uint256",
                    "name": "previousBalance",
                    "type": "uint256"
                },
                {
                    "indexed": false,
                    "internalType": "uint256",
                    "name": "newBalance",
                    "type": "uint256"
                }
            ],
            "name": "DelegateVotesChanged",
            "type": "event"
        },
        {
            "anonymous": false,
            "inputs": [],
            "name": "DescriptorLocked",
            "type": "event"
        },
        {
            "anonymous": false,
            "inputs": [
                {
                    "indexed": false,
                    "internalType": "contract IDescriptor",
                    "name": "descriptor",
                    "type": "address"
                }
            ],
            "name": "DescriptorUpdated",
            "type": "event"
        },
        {
            "anonymous": false,
            "inputs": [],
            "name": "MinterLocked",
            "type": "event"
        },
        {
            "anonymous": false,
            "inputs": [
                {
                    "indexed": false,
                    "internalType": "address",
                    "name": "minter",
                    "type": "address"
                }
            ],
            "name": "MinterUpdated",
            "type": "event"
        },
        {
            "anonymous": false,
            "inputs": [
                {
                    "indexed": true,
                    "internalType": "address",
                    "name": "previousOwner",
                    "type": "address"
                },
                {
                    "indexed": true,
                    "internalType": "address",
                    "name": "newOwner",
                    "type": "address"
                }
            ],
            "name": "OwnershipTransferred",
            "type": "event"
        },
        {
            "anonymous": false,
            "inputs": [
                {
                    "indexed": false,
                    "internalType": "uint256",
                    "name": "tokenId",
                    "type": "uint256"
                },
                {
                    "components": [
                        {
                            "internalType": "address payable",
                            "name": "account",
                            "type": "address"
                        },
                        {
                            "internalType": "uint96",
                            "name": "value",
                            "type": "uint96"
                        }
                    ],
                    "indexed": false,
                    "internalType": "struct LibPart.Part[]",
                    "name": "royalties",
                    "type": "tuple[]"
                }
            ],
            "name": "RoyaltiesSet",
            "type": "event"
        },
        {
            "anonymous": false,
            "inputs": [],
            "name": "SeederLocked",
            "type": "event"
        },
        {
            "anonymous": false,
            "inputs": [
                {
                    "indexed": false,
                    "internalType": "contract ISeeder",
                    "name": "seeder",
                    "type": "address"
                }
            ],
            "name": "SeederUpdated",
            "type": "event"
        },
        {
            "anonymous": false,
            "inputs": [
                {
                    "indexed": true,
                    "internalType": "uint256",
                    "name": "supply",
                    "type": "uint256"
                }
            ],
            "name": "SupplyUpdated",
            "type": "event"
        },
        {
            "anonymous": false,
            "inputs": [
                {
                    "indexed": true,
                    "internalType": "address",
                    "name": "from",
                    "type": "address"
                },
                {
                    "indexed": true,
                    "internalType": "address",
                    "name": "to",
                    "type": "address"
                },
                {
                    "indexed": true,
                    "internalType": "uint256",
                    "name": "tokenId",
                    "type": "uint256"
                }
            ],
            "name": "Transfer",
            "type": "event"
        },
        {
            "anonymous": false,
            "inputs": [
                {
                    "indexed": true,
                    "internalType": "uint256",
                    "name": "tokenId",
                    "type": "uint256"
                }
            ],
            "name": "WizardBurned",
            "type": "event"
        },
        {
            "anonymous": false,
            "inputs": [
                {
                    "indexed": true,
                    "internalType": "uint256",
                    "name": "tokenId",
                    "type": "uint256"
                },
                {
                    "components": [
                        {
                            "internalType": "uint48",
                            "name": "background",
                            "type": "uint48"
                        },
                        {
                            "internalType": "uint48",
                            "name": "skin",
                            "type": "uint48"
                        },
                        {
                            "internalType": "uint48",
                            "name": "clothes",
                            "type": "uint48"
                        },
                        {
                            "internalType": "uint48",
                            "name": "eyes",
                            "type": "uint48"
                        },
                        {
                            "internalType": "uint48",
                            "name": "mouth",
                            "type": "uint48"
                        },
                        {
                            "internalType": "uint48",
                            "name": "accessory",
                            "type": "uint48"
                        },
                        {
                            "internalType": "uint48",
                            "name": "bgItem",
                            "type": "uint48"
                        },
                        {
                            "internalType": "uint48",
                            "name": "hat",
                            "type": "uint48"
                        },
                        {
                            "internalType": "bool",
                            "name": "oneOfOne",
                            "type": "bool"
                        },
                        {
                            "internalType": "uint48",
                            "name": "oneOfOneIndex",
                            "type": "uint48"
                        }
                    ],
                    "indexed": false,
                    "internalType": "struct ISeeder.Seed",
                    "name": "seed",
                    "type": "tuple"
                }
            ],
            "name": "WizardCreated",
            "type": "event"
        },
        {
            "inputs": [],
            "name": "DELEGATION_TYPEHASH",
            "outputs": [
                {
                    "internalType": "bytes32",
                    "name": "",
                    "type": "bytes32"
                }
            ],
            "stateMutability": "view",
            "type": "function"
        },
        {
            "inputs": [],
            "name": "DOMAIN_TYPEHASH",
            "outputs": [
                {
                    "internalType": "bytes32",
                    "name": "",
                    "type": "bytes32"
                }
            ],
            "stateMutability": "view",
            "type": "function"
        },
        {
            "inputs": [
                {
                    "internalType": "address",
                    "name": "to",
                    "type": "address"
                },
                {
                    "internalType": "uint256",
                    "name": "tokenId",
                    "type": "uint256"
                }
            ],
            "name": "approve",
            "outputs": [],
            "stateMutability": "nonpayable",
            "type": "function"
        },
        {
            "inputs": [
                {
                    "internalType": "address",
                    "name": "owner",
                    "type": "address"
                }
            ],
            "name": "balanceOf",
            "outputs": [
                {
                    "internalType": "uint256",
                    "name": "",
                    "type": "uint256"
                }
            ],
            "stateMutability": "view",
            "type": "function"
        },
        {
            "inputs": [
                {
                    "internalType": "uint256",
                    "name": "wizardId",
                    "type": "uint256"
                }
            ],
            "name": "burn",
            "outputs": [],
            "stateMutability": "nonpayable",
            "type": "function"
        },
        {
            "inputs": [
                {
                    "internalType": "address",
                    "name": "",
                    "type": "address"
                },
                {
                    "internalType": "uint32",
                    "name": "",
                    "type": "uint32"
                }
            ],
            "name": "checkpoints",
            "outputs": [
                {
                    "internalType": "uint32",
                    "name": "fromBlock",
                    "type": "uint32"
                },
                {
                    "internalType": "uint96",
                    "name": "votes",
                    "type": "uint96"
                }
            ],
            "stateMutability": "view",
            "type": "function"
        },
        {
            "inputs": [],
            "name": "contractURI",
            "outputs": [
                {
                    "internalType": "string",
                    "name": "",
                    "type": "string"
                }
            ],
            "stateMutability": "view",
            "type": "function"
        },
        {
            "inputs": [],
            "name": "creatorsDAO",
            "outputs": [
                {
                    "internalType": "address",
                    "name": "",
                    "type": "address"
                }
            ],
            "stateMutability": "view",
            "type": "function"
        },
        {
            "inputs": [
                {
                    "internalType": "uint256",
                    "name": "tokenId",
                    "type": "uint256"
                }
            ],
            "name": "dataURI",
            "outputs": [
                {
                    "internalType": "string",
                    "name": "",
                    "type": "string"
                }
            ],
            "stateMutability": "view",
            "type": "function"
        },
        {
            "inputs": [],
            "name": "decimals",
            "outputs": [
                {
                    "internalType": "uint8",
                    "name": "",
                    "type": "uint8"
                }
            ],
            "stateMutability": "view",
            "type": "function"
        },
        {
            "inputs": [
                {
                    "internalType": "address",
                    "name": "delegatee",
                    "type": "address"
                }
            ],
            "name": "delegate",
            "outputs": [],
            "stateMutability": "nonpayable",
            "type": "function"
        },
        {
            "inputs": [
                {
                    "internalType": "address",
                    "name": "delegatee",
                    "type": "address"
                },
                {
                    "internalType": "uint256",
                    "name": "nonce",
                    "type": "uint256"
                },
                {
                    "internalType": "uint256",
                    "name": "expiry",
                    "type": "uint256"
                },
                {
                    "internalType": "uint8",
                    "name": "v",
                    "type": "uint8"
                },
                {
                    "internalType": "bytes32",
                    "name": "r",
                    "type": "bytes32"
                },
                {
                    "internalType": "bytes32",
                    "name": "s",
                    "type": "bytes32"
                }
            ],
            "name": "delegateBySig",
            "outputs": [],
            "stateMutability": "nonpayable",
            "type": "function"
        },
        {
            "inputs": [
                {
                    "internalType": "address",
                    "name": "delegator",
                    "type": "address"
                }
            ],
            "name": "delegates",
            "outputs": [
                {
                    "internalType": "address",
                    "name": "",
                    "type": "address"
                }
            ],
            "stateMutability": "view",
            "type": "function"
        },
        {
            "inputs": [],
            "name": "descriptor",
            "outputs": [
                {
                    "internalType": "contract IDescriptor",
                    "name": "",
                    "type": "address"
                }
            ],
            "stateMutability": "view",
            "type": "function"
        },
        {
            "inputs": [
                {
                    "internalType": "uint256",
                    "name": "tokenId",
                    "type": "uint256"
                }
            ],
            "name": "getApproved",
            "outputs": [
                {
                    "internalType": "address",
                    "name": "",
                    "type": "address"
                }
            ],
            "stateMutability": "view",
            "type": "function"
        },
        {
            "inputs": [
                {
                    "internalType": "address",
                    "name": "account",
                    "type": "address"
                }
            ],
            "name": "getCurrentVotes",
            "outputs": [
                {
                    "internalType": "uint96",
                    "name": "",
                    "type": "uint96"
                }
            ],
            "stateMutability": "view",
            "type": "function"
        },
        {
            "inputs": [
                {
                    "internalType": "address",
                    "name": "account",
                    "type": "address"
                },
                {
                    "internalType": "uint256",
                    "name": "blockNumber",
                    "type": "uint256"
                }
            ],
            "name": "getPriorVotes",
            "outputs": [
                {
                    "internalType": "uint96",
                    "name": "",
                    "type": "uint96"
                }
            ],
            "stateMutability": "view",
            "type": "function"
        },
        {
            "inputs": [
                {
                    "internalType": "uint256",
                    "name": "id",
                    "type": "uint256"
                }
            ],
            "name": "getRaribleV2Royalties",
            "outputs": [
                {
                    "components": [
                        {
                            "internalType": "address payable",
                            "name": "account",
                            "type": "address"
                        },
                        {
                            "internalType": "uint96",
                            "name": "value",
                            "type": "uint96"
                        }
                    ],
                    "internalType": "struct LibPart.Part[]",
                    "name": "",
                    "type": "tuple[]"
                }
            ],
            "stateMutability": "view",
            "type": "function"
        },
        {
            "inputs": [
                {
                    "internalType": "address",
                    "name": "owner",
                    "type": "address"
                },
                {
                    "internalType": "address",
                    "name": "operator",
                    "type": "address"
                }
            ],
            "name": "isApprovedForAll",
            "outputs": [
                {
                    "internalType": "bool",
                    "name": "",
                    "type": "bool"
                }
            ],
            "stateMutability": "view",
            "type": "function"
        },
        {
            "inputs": [],
            "name": "isDescriptorLocked",
            "outputs": [
                {
                    "internalType": "bool",
                    "name": "",
                    "type": "bool"
                }
            ],
            "stateMutability": "view",
            "type": "function"
        },
        {
            "inputs": [],
            "name": "isMinterLocked",
            "outputs": [
                {
                    "internalType": "bool",
                    "name": "",
                    "type": "bool"
                }
            ],
            "stateMutability": "view",
            "type": "function"
        },
        {
            "inputs": [],
            "name": "isSeederLocked",
            "outputs": [
                {
                    "internalType": "bool",
                    "name": "",
                    "type": "bool"
                }
            ],
            "stateMutability": "view",
            "type": "function"
        },
        {
            "inputs": [],
            "name": "lockDescriptor",
            "outputs": [],
            "stateMutability": "nonpayable",
            "type": "function"
        },
        {
            "inputs": [],
            "name": "lockMinter",
            "outputs": [],
            "stateMutability": "nonpayable",
            "type": "function"
        },
        {
            "inputs": [],
            "name": "lockSeeder",
            "outputs": [],
            "stateMutability": "nonpayable",
            "type": "function"
        },
        {
            "inputs": [],
            "name": "mint",
            "outputs": [
                {
                    "internalType": "uint256",
                    "name": "",
                    "type": "uint256"
                }
            ],
            "stateMutability": "nonpayable",
            "type": "function"
        },
        {
            "inputs": [
                {
                    "internalType": "uint48",
                    "name": "oneOfOneId",
                    "type": "uint48"
                }
            ],
            "name": "mintOneOfOne",
            "outputs": [
                {
                    "internalType": "uint256",
                    "name": "",
                    "type": "uint256"
                },
                {
                    "internalType": "bool",
                    "name": "",
                    "type": "bool"
                }
            ],
            "stateMutability": "nonpayable",
            "type": "function"
        },
        {
            "inputs": [],
            "name": "minter",
            "outputs": [
                {
                    "internalType": "address",
                    "name": "",
                    "type": "address"
                }
            ],
            "stateMutability": "view",
            "type": "function"
        },
        {
            "inputs": [],
            "name": "name",
            "outputs": [
                {
                    "internalType": "string",
                    "name": "",
                    "type": "string"
                }
            ],
            "stateMutability": "view",
            "type": "function"
        },
        {
            "inputs": [
                {
                    "internalType": "address",
                    "name": "",
                    "type": "address"
                }
            ],
            "name": "nonces",
            "outputs": [
                {
                    "internalType": "uint256",
                    "name": "",
                    "type": "uint256"
                }
            ],
            "stateMutability": "view",
            "type": "function"
        },
        {
            "inputs": [
                {
                    "internalType": "address",
                    "name": "",
                    "type": "address"
                }
            ],
            "name": "numCheckpoints",
            "outputs": [
                {
                    "internalType": "uint32",
                    "name": "",
                    "type": "uint32"
                }
            ],
            "stateMutability": "view",
            "type": "function"
        },
        {
            "inputs": [
                {
                    "internalType": "uint256",
                    "name": "",
                    "type": "uint256"
                }
            ],
            "name": "oneOfOneSupply",
            "outputs": [
                {
                    "internalType": "uint8",
                    "name": "",
                    "type": "uint8"
                }
            ],
            "stateMutability": "view",
            "type": "function"
        },
        {
            "inputs": [],
            "name": "owner",
            "outputs": [
                {
                    "internalType": "address",
                    "name": "",
                    "type": "address"
                }
            ],
            "stateMutability": "view",
            "type": "function"
        },
        {
            "inputs": [
                {
                    "internalType": "uint256",
                    "name": "tokenId",
                    "type": "uint256"
                }
            ],
            "name": "ownerOf",
            "outputs": [
                {
                    "internalType": "address",
                    "name": "",
                    "type": "address"
                }
            ],
            "stateMutability": "view",
            "type": "function"
        },
        {
            "inputs": [],
            "name": "proxyRegistry",
            "outputs": [
                {
                    "internalType": "contract IProxyRegistry",
                    "name": "",
                    "type": "address"
                }
            ],
            "stateMutability": "view",
            "type": "function"
        },
        {
            "inputs": [],
            "name": "renounceOwnership",
            "outputs": [],
            "stateMutability": "nonpayable",
            "type": "function"
        },
        {
            "inputs": [
                {
                    "internalType": "uint256",
                    "name": "",
                    "type": "uint256"
                },
                {
                    "internalType": "uint256",
                    "name": "",
                    "type": "uint256"
                }
            ],
            "name": "royalties",
            "outputs": [
                {
                    "internalType": "address payable",
                    "name": "account",
                    "type": "address"
                },
                {
                    "internalType": "uint96",
                    "name": "value",
                    "type": "uint96"
                }
            ],
            "stateMutability": "view",
            "type": "function"
        },
        {
            "inputs": [
                {
                    "internalType": "uint256",
                    "name": "_tokenId",
                    "type": "uint256"
                },
                {
                    "internalType": "uint256",
                    "name": "_salePrice",
                    "type": "uint256"
                }
            ],
            "name": "royaltyInfo",
            "outputs": [
                {
                    "internalType": "address",
                    "name": "receiver",
                    "type": "address"
                },
                {
                    "internalType": "uint256",
                    "name": "royaltyAmount",
                    "type": "uint256"
                }
            ],
            "stateMutability": "view",
            "type": "function"
        },
        {
            "inputs": [
                {
                    "internalType": "address",
                    "name": "from",
                    "type": "address"
                },
                {
                    "internalType": "address",
                    "name": "to",
                    "type": "address"
                },
                {
                    "internalType": "uint256",
                    "name": "tokenId",
                    "type": "uint256"
                }
            ],
            "name": "safeTransferFrom",
            "outputs": [],
            "stateMutability": "nonpayable",
            "type": "function"
        },
        {
            "inputs": [
                {
                    "internalType": "address",
                    "name": "from",
                    "type": "address"
                },
                {
                    "internalType": "address",
                    "name": "to",
                    "type": "address"
                },
                {
                    "internalType": "uint256",
                    "name": "tokenId",
                    "type": "uint256"
                },
                {
                    "internalType": "bytes",
                    "name": "_data",
                    "type": "bytes"
                }
            ],
            "name": "safeTransferFrom",
            "outputs": [],
            "stateMutability": "nonpayable",
            "type": "function"
        },
        {
            "inputs": [],
            "name": "seeder",
            "outputs": [
                {
                    "internalType": "contract ISeeder",
                    "name": "",
                    "type": "address"
                }
            ],
            "stateMutability": "view",
            "type": "function"
        },
        {
            "inputs": [
                {
                    "internalType": "uint256",
                    "name": "",
                    "type": "uint256"
                }
            ],
            "name": "seeds",
            "outputs": [
                {
                    "internalType": "uint48",
                    "name": "background",
                    "type": "uint48"
                },
                {
                    "internalType": "uint48",
                    "name": "skin",
                    "type": "uint48"
                },
                {
                    "internalType": "uint48",
                    "name": "clothes",
                    "type": "uint48"
                },
                {
                    "internalType": "uint48",
                    "name": "eyes",
                    "type": "uint48"
                },
                {
                    "internalType": "uint48",
                    "name": "mouth",
                    "type": "uint48"
                },
                {
                    "internalType": "uint48",
                    "name": "accessory",
                    "type": "uint48"
                },
                {
                    "internalType": "uint48",
                    "name": "bgItem",
                    "type": "uint48"
                },
                {
                    "internalType": "uint48",
                    "name": "hat",
                    "type": "uint48"
                },
                {
                    "internalType": "bool",
                    "name": "oneOfOne",
                    "type": "bool"
                },
                {
                    "internalType": "uint48",
                    "name": "oneOfOneIndex",
                    "type": "uint48"
                }
            ],
            "stateMutability": "view",
            "type": "function"
        },
        {
            "inputs": [
                {
                    "internalType": "address",
                    "name": "operator",
                    "type": "address"
                },
                {
                    "internalType": "bool",
                    "name": "approved",
                    "type": "bool"
                }
            ],
            "name": "setApprovalForAll",
            "outputs": [],
            "stateMutability": "nonpayable",
            "type": "function"
        },
        {
            "inputs": [
                {
                    "internalType": "string",
                    "name": "newContractURIHash",
                    "type": "string"
                }
            ],
            "name": "setContractURIHash",
            "outputs": [],
            "stateMutability": "nonpayable",
            "type": "function"
        },
        {
            "inputs": [
                {
                    "internalType": "address",
                    "name": "_creatorsDAO",
                    "type": "address"
                }
            ],
            "name": "setCreatorsDAO",
            "outputs": [],
            "stateMutability": "nonpayable",
            "type": "function"
        },
        {
            "inputs": [
                {
                    "internalType": "contract IDescriptor",
                    "name": "_descriptor",
                    "type": "address"
                }
            ],
            "name": "setDescriptor",
            "outputs": [],
            "stateMutability": "nonpayable",
            "type": "function"
        },
        {
            "inputs": [
                {
                    "internalType": "address",
                    "name": "_minter",
                    "type": "address"
                }
            ],
            "name": "setMinter",
            "outputs": [],
            "stateMutability": "nonpayable",
            "type": "function"
        },
        {
            "inputs": [
                {
                    "internalType": "uint256",
                    "name": "_tokenId",
                    "type": "uint256"
                },
                {
                    "internalType": "address payable",
                    "name": "_royaltiesReceipientAddress",
                    "type": "address"
                },
                {
                    "internalType": "uint96",
                    "name": "_percentageBasisPoints",
                    "type": "uint96"
                }
            ],
            "name": "setRoyalties",
            "outputs": [],
            "stateMutability": "nonpayable",
            "type": "function"
        },
        {
            "inputs": [
                {
                    "internalType": "contract ISeeder",
                    "name": "_seeder",
                    "type": "address"
                }
            ],
            "name": "setSeeder",
            "outputs": [],
            "stateMutability": "nonpayable",
            "type": "function"
        },
        {
            "inputs": [
                {
                    "internalType": "uint256",
                    "name": "_supply",
                    "type": "uint256"
                }
            ],
            "name": "setSupply",
            "outputs": [],
            "stateMutability": "nonpayable",
            "type": "function"
        },
        {
            "inputs": [],
            "name": "supply",
            "outputs": [
                {
                    "internalType": "uint256",
                    "name": "",
                    "type": "uint256"
                }
            ],
            "stateMutability": "view",
            "type": "function"
        },
        {
            "inputs": [
                {
                    "internalType": "bytes4",
                    "name": "interfaceId",
                    "type": "bytes4"
                }
            ],
            "name": "supportsInterface",
            "outputs": [
                {
                    "internalType": "bool",
                    "name": "",
                    "type": "bool"
                }
            ],
            "stateMutability": "view",
            "type": "function"
        },
        {
            "inputs": [],
            "name": "symbol",
            "outputs": [
                {
                    "internalType": "string",
                    "name": "",
                    "type": "string"
                }
            ],
            "stateMutability": "view",
            "type": "function"
        },
        {
            "inputs": [
                {
                    "internalType": "uint256",
                    "name": "index",
                    "type": "uint256"
                }
            ],
            "name": "tokenByIndex",
            "outputs": [
                {
                    "internalType": "uint256",
                    "name": "",
                    "type": "uint256"
                }
            ],
            "stateMutability": "view",
            "type": "function"
        },
        {
            "inputs": [
                {
                    "internalType": "address",
                    "name": "owner",
                    "type": "address"
                },
                {
                    "internalType": "uint256",
                    "name": "index",
                    "type": "uint256"
                }
            ],
            "name": "tokenOfOwnerByIndex",
            "outputs": [
                {
                    "internalType": "uint256",
                    "name": "",
                    "type": "uint256"
                }
            ],
            "stateMutability": "view",
            "type": "function"
        },
        {
            "inputs": [
                {
                    "internalType": "uint256",
                    "name": "tokenId",
                    "type": "uint256"
                }
            ],
            "name": "tokenURI",
            "outputs": [
                {
                    "internalType": "string",
                    "name": "",
                    "type": "string"
                }
            ],
            "stateMutability": "view",
            "type": "function"
        },
        {
            "inputs": [],
            "name": "totalSupply",
            "outputs": [
                {
                    "internalType": "uint256",
                    "name": "",
                    "type": "uint256"
                }
            ],
            "stateMutability": "view",
            "type": "function"
        },
        {
            "inputs": [
                {
                    "internalType": "address",
                    "name": "from",
                    "type": "address"
                },
                {
                    "internalType": "address",
                    "name": "to",
                    "type": "address"
                },
                {
                    "internalType": "uint256",
                    "name": "tokenId",
                    "type": "uint256"
                }
            ],
            "name": "transferFrom",
            "outputs": [],
            "stateMutability": "nonpayable",
            "type": "function"
        },
        {
            "inputs": [
                {
                    "internalType": "address",
                    "name": "newOwner",
                    "type": "address"
                }
            ],
            "name": "transferOwnership",
            "outputs": [],
            "stateMutability": "nonpayable",
            "type": "function"
        },
        {
            "inputs": [
                {
                    "internalType": "address",
                    "name": "delegator",
                    "type": "address"
                }
            ],
            "name": "votesToDelegate",
            "outputs": [
                {
                    "internalType": "uint96",
                    "name": "",
                    "type": "uint96"
                }
            ],
            "stateMutability": "view",
            "type": "function"
        }
    ],
    "bytecode": "0x610100604052602e60a0818152906200593860c03980516200002a916019916020909101906200019d565b503480156200003857600080fd5b5060405162005966380380620059668339810160408190526200005b9162000243565b6040518060400160405280600781526020016657697a6172647360c81b815250604051806040016040528060038152602001622ba4ad60e91b815250620000b1620000ab6200014960201b60201c565b6200014d565b8151620000c69060019060208501906200019d565b508051620000dc9060029060208401906200019d565b5050601080546001600160a01b03199081166001600160a01b03998a161790915560118054821697891697909717909655506012805486169487169490941790935560138054909416919094161790915560609190911b6001600160601b03191660805260145562000321565b3390565b600080546001600160a01b038381166001600160a01b0319831681178455604051919092169283917f8be0079c531659141344cd1fd0a4f28419497f9722a3daafe3b4186f6b6457e09190a35050565b828054620001ab90620002cb565b90600052602060002090601f016020900481019282620001cf57600085556200021a565b82601f10620001ea57805160ff19168380011785556200021a565b828001600101855582156200021a579182015b828111156200021a578251825591602001919060010190620001fd565b50620002289291506200022c565b5090565b5b808211156200022857600081556001016200022d565b60008060008060008060c087890312156200025d57600080fd5b86516200026a8162000308565b60208801519096506200027d8162000308565b6040880151909550620002908162000308565b6060880151909450620002a38162000308565b6080880151909350620002b68162000308565b8092505060a087015190509295509295509295565b600181811c90821680620002e057607f821691505b602082108114156200030257634e487b7160e01b600052602260045260246000fd5b50919050565b6001600160a01b03811681146200031e57600080fd5b50565b60805160601c6155f162000347600039600081816107b40152612d3f01526155f16000f3fe608060405234801561001057600080fd5b50600436106103a45760003560e01c806370a08231116101e9578063baedc1c41161010f578063e7a324dc116100ad578063f0503e801161007c578063f0503e80146108f7578063f1127ed814610a15578063f2fde38b14610a87578063fca3b5aa14610a9a57600080fd5b8063e7a324dc146108a2578063e8a3d485146108c9578063e9580e91146108d1578063e985e9c5146108e457600080fd5b8063c87b56dd116100e9578063c87b56dd14610835578063c8fc0c2314610848578063cad96cca1461086f578063d50b31eb1461088f57600080fd5b8063baedc1c4146107e9578063c1b8e4e1146107fc578063c3cda5201461082257600080fd5b80638da5cb5b11610187578063ad1a26ca11610156578063ad1a26ca14610789578063b4b5ea571461079c578063b50cbd9f146107af578063b88d4fde146107d657600080fd5b80638da5cb5b1461074a57806395d89b411461075b5780639d36f4ca14610763578063a22cb4651461077657600080fd5b8063782d6fe1116101c3578063782d6fe1146106935780637ecebe00146106c35780638924af74146106e35780638c825c081461072257600080fd5b806370a0823114610670578063715018a61461068357806376daebe11461068b57600080fd5b80632f745c59116102ce5780634f6ccce71161026c5780635f295a671161023b5780635f295a67146106075780636352211e1461060f578063684931ed146106225780636fcfff451461063557600080fd5b80634f6ccce7146105bb578063587cde1e146105ce5780635ac1e3bb146105e15780635c19a95c146105f457600080fd5b80633b4c4b25116102a85780633b4c4b251461057a57806341b5d0de1461058d57806342842e0e1461059557806342966c68146105a857600080fd5b80632f745c591461054c578063303e74df1461055f578063313ce5671461057257600080fd5b80631249c58b116103465780631e688e10116103155780631e688e10146104bb57806320606b70146104e057806323b872dd146105075780632a55205a1461051a57600080fd5b80631249c58b14610463578063143094db1461046b57806318160ddd1461047e5780631e18b7181461048657600080fd5b806306fdde031161038257806306fdde03146103fd5780630754617214610412578063081812fc1461043d578063095ea7b31461045057600080fd5b806301b9a397146103a957806301ffc9a7146103be578063047fc9aa146103e6575b600080fd5b6103bc6103b7366004614950565b610aad565b005b6103d16103cc366004614b77565b610be5565b60405190151581526020015b60405180910390f35b6103ef60145481565b6040519081526020016103dd565b610405610d3e565b6040516103dd9190614fd7565b601154610425906001600160a01b031681565b6040516001600160a01b0390911681526020016103dd565b61042561044b366004614d39565b610dd0565b6103bc61045e366004614ab2565b610e76565b6103ef610fa8565b6103bc610479366004614d6b565b61107d565b6009546103ef565b6104a9610494366004614d39565b60166020526000908152604090205460ff1681565b60405160ff90911681526020016103dd565b6013546103d19074010000000000000000000000000000000000000000900460ff1681565b6103ef7f8cad95687ba82c2ce50e74f7b754645e5117c3a5bec8151c0726d5857980a86681565b6103bc6105153660046149c3565b611195565b61052d610528366004614dbe565b61121c565b604080516001600160a01b0390931683526020830191909152016103dd565b6103ef61055a366004614ab2565b61133d565b601254610425906001600160a01b031681565b6104a9600081565b6103bc610588366004614d39565b6113e5565b6103bc611472565b6103bc6105a33660046149c3565b6115a3565b6103bc6105b6366004614d39565b6115be565b6103ef6105c9366004614d39565b61164f565b6104256105dc366004614950565b6116f3565b6104056105ef366004614d39565b611725565b6103bc610602366004614950565b6118e1565b6103bc6118ff565b61042561061d366004614d39565b611a32565b601354610425906001600160a01b031681565b61065b610643366004614950565b600d6020526000908152604090205463ffffffff1681565b60405163ffffffff90911681526020016103dd565b6103ef61067e366004614950565b611abd565b6103bc611b57565b6103bc611bbd565b6106a66106a1366004614ab2565b611cec565b6040516bffffffffffffffffffffffff90911681526020016103dd565b6103ef6106d1366004614950565b600e6020526000908152604090205481565b6106f66106f1366004614dbe565b611f9b565b604080516001600160a01b0390931683526bffffffffffffffffffffffff9091166020830152016103dd565b610735610730366004614de0565b611ffa565b604080519283529015156020830152016103dd565b6000546001600160a01b0316610425565b61040561230e565b6103bc610771366004614950565b61231d565b6103bc610784366004614a84565b6123dd565b601054610425906001600160a01b031681565b6106a66107aa366004614950565b6124c0565b6104257f000000000000000000000000000000000000000000000000000000000000000081565b6103bc6107e4366004614a04565b612543565b6103bc6107f7366004614bb1565b6125cb565b6013546103d1907501000000000000000000000000000000000000000000900460ff1681565b6103bc610830366004614ade565b61263c565b610405610843366004614d39565b61296e565b6013546103d190760100000000000000000000000000000000000000000000900460ff1681565b61088261087d366004614d39565b612ada565b6040516103dd9190614fc4565b6103bc61089d366004614950565b612b7f565b6103ef7fe48329057bfd03d55e49b547132e39cffd9c1820ad7b9d4c5307691425d15adf81565b610405612cac565b6106a66108df366004614950565b612cd4565b6103d16108f236600461498a565b612d00565b6109b3610905366004614d39565b6015602052600090815260409020805460019091015465ffffffffffff8083169266010000000000008082048316936c0100000000000000000000000080840485169472010000000000000000000000000000000000008086048216957801000000000000000000000000000000000000000000000000900482169482851694908104831693810483169291810460ff1691730100000000000000000000000000000000000000909104168a565b6040805165ffffffffffff9b8c168152998b1660208b0152978a16978901979097529488166060880152928716608087015290861660a0860152851660c0850152841660e08401521515610100830152909116610120820152610140016103dd565b610a5e610a23366004614b40565b600c60209081526000928352604080842090915290825290205463ffffffff81169064010000000090046bffffffffffffffffffffffff1682565b6040805163ffffffff90931683526bffffffffffffffffffffffff9091166020830152016103dd565b6103bc610a95366004614950565b612dfe565b6103bc610aa8366004614950565b612edd565b6000546001600160a01b03163314610b0c5760405162461bcd60e51b815260206004820181905260248201527f4f776e61626c653a2063616c6c6572206973206e6f7420746865206f776e657260448201526064015b60405180910390fd5b6013547501000000000000000000000000000000000000000000900460ff1615610b785760405162461bcd60e51b815260206004820152601460248201527f44657363726970746f72206973206c6f636b65640000000000000000000000006044820152606401610b03565b601280547fffffffffffffffffffffffff0000000000000000000000000000000000000000166001600160a01b0383169081179091556040519081527f6e66ab22238a5471005895947c8f57db923c2a9c9c73180eff80864c21295c1b906020015b60405180910390a150565b60007fffffffff0000000000000000000000000000000000000000000000000000000082167f780e9d63000000000000000000000000000000000000000000000000000000001415610c3957506001919050565b7fffffffff0000000000000000000000000000000000000000000000000000000082167f44c74bcc000000000000000000000000000000000000000000000000000000001415610c8b57506001919050565b7fffffffff0000000000000000000000000000000000000000000000000000000082167f01ffc9a7000000000000000000000000000000000000000000000000000000001415610cdd57506001919050565b7fffffffff0000000000000000000000000000000000000000000000000000000082167f2a55205a000000000000000000000000000000000000000000000000000000001415610d2f57506001919050565b610d3882613008565b92915050565b606060018054610d4d906152dc565b80601f0160208091040260200160405190810160405280929190818152602001828054610d79906152dc565b8015610dc65780601f10610d9b57610100808354040283529160200191610dc6565b820191906000526020600020905b815481529060010190602001808311610da957829003601f168201915b5050505050905090565b6000818152600360205260408120546001600160a01b0316610e5a5760405162461bcd60e51b815260206004820152602c60248201527f4552433732313a20617070726f76656420717565727920666f72206e6f6e657860448201527f697374656e7420746f6b656e00000000000000000000000000000000000000006064820152608401610b03565b506000908152600560205260409020546001600160a01b031690565b6000610e8182611a32565b9050806001600160a01b0316836001600160a01b03161415610f0b5760405162461bcd60e51b815260206004820152602160248201527f4552433732313a20617070726f76616c20746f2063757272656e74206f776e6560448201527f72000000000000000000000000000000000000000000000000000000000000006064820152608401610b03565b336001600160a01b0382161480610f275750610f278133612d00565b610f995760405162461bcd60e51b815260206004820152603860248201527f4552433732313a20617070726f76652063616c6c6572206973206e6f74206f7760448201527f6e6572206e6f7220617070726f76656420666f7220616c6c00000000000000006064820152608401610b03565b610fa3838361305e565b505050565b6011546000906001600160a01b031633146110055760405162461bcd60e51b815260206004820152601860248201527f53656e646572206973206e6f7420746865206d696e74657200000000000000006044820152606401610b03565b61013e60175411158015611025575060066017546110239190615369565b155b156110585760105460178054611056926001600160a01b031691600061104a83615330565b919050556000806130e4565b505b60115460178054611078926001600160a01b031691600061104a83615330565b905090565b6000546001600160a01b031633146110d75760405162461bcd60e51b815260206004820181905260248201527f4f776e61626c653a2063616c6c6572206973206e6f7420746865206f776e65726044820152606401610b03565b604080516001808252818301909252600091816020015b60408051808201909152600080825260208201528152602001906001900390816110ee579050509050818160008151811061112b5761112b61540a565b6020026020010151602001906bffffffffffffffffffffffff1690816bffffffffffffffffffffffff1681525050828160008151811061116d5761116d61540a565b60209081029190910101516001600160a01b03909116905261118f84826135c2565b50505050565b61119f3382613761565b6112115760405162461bcd60e51b815260206004820152603160248201527f4552433732313a207472616e736665722063616c6c6572206973206e6f74206f60448201527f776e6572206e6f7220617070726f7665640000000000000000000000000000006064820152608401610b03565b610fa3838383613841565b6000828152600f60209081526040808320805482518185028101850190935280835284938493929190849084015b828210156112af57600084815260209081902060408051808201909152908401546001600160a01b03811682527401000000000000000000000000000000000000000090046bffffffffffffffffffffffff168183015282526001909201910161124a565b50505050905060008151111561132d57806000815181106112d2576112d261540a565b602002602001015160000151612710826000815181106112f4576112f461540a565b6020026020010151602001516bffffffffffffffffffffffff16866113199190615212565b61132391906151db565b9250925050611336565b60008092509250505b9250929050565b600061134883611abd565b82106113bc5760405162461bcd60e51b815260206004820152602b60248201527f455243373231456e756d657261626c653a206f776e657220696e646578206f7560448201527f74206f6620626f756e64730000000000000000000000000000000000000000006064820152608401610b03565b506001600160a01b03919091166000908152600760209081526040808320938352929052205490565b6000546001600160a01b0316331461143f5760405162461bcd60e51b815260206004820181905260248201527f4f776e61626c653a2063616c6c6572206973206e6f7420746865206f776e65726044820152606401610b03565b601481905560405181907fea4bfee7f9fb38136c61cc04b6e56efc93eaf1beef326dbc47495b358385914c90600090a250565b6000546001600160a01b031633146114cc5760405162461bcd60e51b815260206004820181905260248201527f4f776e61626c653a2063616c6c6572206973206e6f7420746865206f776e65726044820152606401610b03565b6013547501000000000000000000000000000000000000000000900460ff16156115385760405162461bcd60e51b815260206004820152601460248201527f44657363726970746f72206973206c6f636b65640000000000000000000000006044820152606401610b03565b601380547fffffffffffffffffffff00ffffffffffffffffffffffffffffffffffffffffff1675010000000000000000000000000000000000000000001790556040517f593e31e306c198bef259d839f7c6dc4ff7fc10c07f76fab193a210b03704105f90600090a1565b610fa383838360405180602001604052806000815250612543565b6011546001600160a01b031633146116185760405162461bcd60e51b815260206004820152601860248201527f53656e646572206973206e6f7420746865206d696e74657200000000000000006044820152606401610b03565b61162181613a31565b60405181907fdbe63f1c27babbb668c6712beea279fdacbf8eece4d96ba925e7a533346d84ca90600090a250565b600061165a60095490565b82106116ce5760405162461bcd60e51b815260206004820152602c60248201527f455243373231456e756d657261626c653a20676c6f62616c20696e646578206f60448201527f7574206f6620626f756e647300000000000000000000000000000000000000006064820152608401610b03565b600982815481106116e1576116e161540a565b90600052602060002001549050919050565b6001600160a01b038082166000908152600b6020526040812054909116801561171c578061171e565b825b9392505050565b6000818152600360205260409020546060906001600160a01b03166117b25760405162461bcd60e51b815260206004820152602d60248201527f57697a61726473546f6b656e3a2055524920717565727920666f72206e6f6e6560448201527f78697374656e7420746f6b656e000000000000000000000000000000000000006064820152608401610b03565b6012546000838152601560205260409081902090517f40a2977500000000000000000000000000000000000000000000000000000000815260048101859052815465ffffffffffff8082166024840152603082811c82166044850152606083811c83166064860152609084811c8416608487015260c09490941c831660a486015260019095015480831660c48601529081901c821660e48501529384901c81166101048401529083901c60ff16151561012483015260989290921c9091166101448201526001600160a01b03909116906340a2977590610164015b60006040518083038186803b1580156118a557600080fd5b505afa1580156118b9573d6000803e3d6000fd5b505050506040513d6000823e601f3d908101601f19168201604052610d389190810190614bfa565b6001600160a01b0381166118f25750335b6118fc3382613af0565b50565b6000546001600160a01b031633146119595760405162461bcd60e51b815260206004820181905260248201527f4f776e61626c653a2063616c6c6572206973206e6f7420746865206f776e65726044820152606401610b03565b601354760100000000000000000000000000000000000000000000900460ff16156119c65760405162461bcd60e51b815260206004820152601060248201527f536565646572206973206c6f636b6564000000000000000000000000000000006044820152606401610b03565b601380547fffffffffffffffffff00ffffffffffffffffffffffffffffffffffffffffffff167601000000000000000000000000000000000000000000001790556040517ff59561f22794afcfb1e6be5c4733f5449fd167252a96b74bb06d341fb0dac7ed90600090a1565b6000818152600360205260408120546001600160a01b031680610d385760405162461bcd60e51b815260206004820152602960248201527f4552433732313a206f776e657220717565727920666f72206e6f6e657869737460448201527f656e7420746f6b656e00000000000000000000000000000000000000000000006064820152608401610b03565b60006001600160a01b038216611b3b5760405162461bcd60e51b815260206004820152602a60248201527f4552433732313a2062616c616e636520717565727920666f7220746865207a6560448201527f726f2061646472657373000000000000000000000000000000000000000000006064820152608401610b03565b506001600160a01b031660009081526004602052604090205490565b6000546001600160a01b03163314611bb15760405162461bcd60e51b815260206004820181905260248201527f4f776e61626c653a2063616c6c6572206973206e6f7420746865206f776e65726044820152606401610b03565b611bbb6000613b88565b565b6000546001600160a01b03163314611c175760405162461bcd60e51b815260206004820181905260248201527f4f776e61626c653a2063616c6c6572206973206e6f7420746865206f776e65726044820152606401610b03565b60135474010000000000000000000000000000000000000000900460ff1615611c825760405162461bcd60e51b815260206004820152601060248201527f4d696e746572206973206c6f636b6564000000000000000000000000000000006044820152606401610b03565b601380547fffffffffffffffffffffff00ffffffffffffffffffffffffffffffffffffffff16740100000000000000000000000000000000000000001790556040517f192417b3f16b1ce69e0c59b0376549666650245ffc05e4b2569089dda8589b6690600090a1565b6000438210611d635760405162461bcd60e51b815260206004820152603760248201527f455243373231436865636b706f696e7461626c653a3a6765745072696f72566f60448201527f7465733a206e6f74207965742064657465726d696e65640000000000000000006064820152608401610b03565b6001600160a01b0383166000908152600d602052604090205463ffffffff1680611d91576000915050610d38565b6001600160a01b0384166000908152600c602052604081208491611db6600185615266565b63ffffffff90811682526020820192909252604001600020541611611e2f576001600160a01b0384166000908152600c6020526040812090611df9600184615266565b63ffffffff16815260208101919091526040016000205464010000000090046bffffffffffffffffffffffff169150610d389050565b6001600160a01b0384166000908152600c6020908152604080832083805290915290205463ffffffff16831015611e6a576000915050610d38565b600080611e78600184615266565b90505b8163ffffffff168163ffffffff161115611f505760006002611e9d8484615266565b611ea791906151ef565b611eb19083615266565b6001600160a01b0388166000908152600c6020908152604080832063ffffffff8581168552908352928190208151808301909252549283168082526401000000009093046bffffffffffffffffffffffff1691810191909152919250871415611f2457602001519450610d389350505050565b805163ffffffff16871115611f3b57819350611f49565b611f46600183615266565b92505b5050611e7b565b506001600160a01b0385166000908152600c6020908152604080832063ffffffff909416835292905220546bffffffffffffffffffffffff6401000000009091041691505092915050565b600f6020528160005260406000208181548110611fb757600080fd5b6000918252602090912001546001600160a01b03811692507401000000000000000000000000000000000000000090046bffffffffffffffffffffffff16905082565b60115460009081906001600160a01b031633146120595760405162461bcd60e51b815260206004820152601860248201527f53656e646572206973206e6f7420746865206d696e74657200000000000000006044820152606401610b03565b601254604080517f50271c1600000000000000000000000000000000000000000000000000000000815290516000926001600160a01b0316916350271c16916004808301926020929190829003018186803b1580156120b757600080fd5b505afa1580156120cb573d6000803e3d6000fd5b505050506040513d601f19601f820116820180604052508101906120ef9190614d52565b9050808465ffffffffffff16108015612106575060015b6121525760405162461bcd60e51b815260206004820152601960248201527f6f6e65206f66206f6e6520646f6573206e6f74206578697374000000000000006044820152606401610b03565b80601a541415612187576011546017805461217c926001600160a01b031691600061104a83615330565b946000945092505050565b65ffffffffffff841660009081526016602052604090205460ff168061222957601154601780546000926121d8926001600160a01b039091169190846121cc83615330565b919050556001896130e4565b65ffffffffffff8716600090815260166020526040902080547fffffffffffffffffffffffffffffffffffffffffffffffffffffffffffffff00166001908117909155909550935061230992505050565b60005b828110156122da5760008181526016602052604090205460ff16806122c7576011546017805460009261227c926001600160a01b0390911691908461227083615330565b9190505560018b6130e4565b60009384526016602052604090932080547fffffffffffffffffffffffffffffffffffffffffffffffffffffffffffffff001660019081179091559296509194506123099350505050565b50806122d281615330565b91505061222c565b50601a82905560115460178054612300926001600160a01b031691600061104a83615330565b60009350935050505b915091565b606060028054610d4d906152dc565b6010546001600160a01b031633146123775760405162461bcd60e51b815260206004820152601e60248201527f53656e646572206973206e6f74207468652063726561746f72732044414f00006044820152606401610b03565b601080547fffffffffffffffffffffffff0000000000000000000000000000000000000000166001600160a01b0383169081179091556040519081527f25e7d5026e0fd314deaf23ad9dd18d9accf2131502d2711ba2aa789853ac7c9290602001610bda565b6001600160a01b0382163314156124365760405162461bcd60e51b815260206004820152601960248201527f4552433732313a20617070726f766520746f2063616c6c6572000000000000006044820152606401610b03565b3360008181526006602090815260408083206001600160a01b0387168085529083529281902080547fffffffffffffffffffffffffffffffffffffffffffffffffffffffffffffff001686151590811790915590519081529192917f17307eab39ab6107e8899845ad3d59bd9653f200f220920489ca2b5937696c31910160405180910390a35050565b6001600160a01b0381166000908152600d602052604081205463ffffffff16806124eb57600061171e565b6001600160a01b0383166000908152600c602052604081209061250f600184615266565b63ffffffff16815260208101919091526040016000205464010000000090046bffffffffffffffffffffffff169392505050565b61254d3383613761565b6125bf5760405162461bcd60e51b815260206004820152603160248201527f4552433732313a207472616e736665722063616c6c6572206973206e6f74206f60448201527f776e6572206e6f7220617070726f7665640000000000000000000000000000006064820152608401610b03565b61118f84848484613bf0565b6000546001600160a01b031633146126255760405162461bcd60e51b815260206004820181905260248201527f4f776e61626c653a2063616c6c6572206973206e6f7420746865206f776e65726044820152606401610b03565b805161263890601990602084019061485e565b5050565b60007f8cad95687ba82c2ce50e74f7b754645e5117c3a5bec8151c0726d5857980a866612667610d3e565b805190602001206126754690565b60408051602080820195909552808201939093526060830191909152306080808401919091528151808403909101815260a0830182528051908401207fe48329057bfd03d55e49b547132e39cffd9c1820ad7b9d4c5307691425d15adf60c08401526001600160a01b038b1660e084015261010083018a90526101208084018a9052825180850390910181526101408401909252815191909301207f1901000000000000000000000000000000000000000000000000000000000000610160830152610162820183905261018282018190529192506000906101a20160408051601f198184030181528282528051602091820120600080855291840180845281905260ff8a169284019290925260608301889052608083018790529092509060019060a0016020604051602081039080840390855afa1580156127bc573d6000803e3d6000fd5b5050604051601f1901519150506001600160a01b0381166128455760405162461bcd60e51b815260206004820152603660248201527f455243373231436865636b706f696e7461626c653a3a64656c6567617465427960448201527f5369673a20696e76616c6964207369676e6174757265000000000000000000006064820152608401610b03565b6001600160a01b0381166000908152600e6020526040812080549161286983615330565b9190505589146128e15760405162461bcd60e51b815260206004820152603260248201527f455243373231436865636b706f696e7461626c653a3a64656c6567617465427960448201527f5369673a20696e76616c6964206e6f6e636500000000000000000000000000006064820152608401610b03565b874211156129575760405162461bcd60e51b815260206004820152603660248201527f455243373231436865636b706f696e7461626c653a3a64656c6567617465427960448201527f5369673a207369676e61747572652065787069726564000000000000000000006064820152608401610b03565b612961818b613af0565b505050505b505050505050565b6000818152600360205260409020546060906001600160a01b03166129fb5760405162461bcd60e51b815260206004820152602d60248201527f57697a61726473546f6b656e3a2055524920717565727920666f72206e6f6e6560448201527f78697374656e7420746f6b656e000000000000000000000000000000000000006064820152608401610b03565b6012546000838152601560205260409081902090517f81d23bd200000000000000000000000000000000000000000000000000000000815260048101859052815465ffffffffffff8082166024840152603082811c82166044850152606083811c83166064860152609084811c8416608487015260c09490941c831660a486015260019095015480831660c48601529081901c821660e48501529384901c81166101048401529083901c60ff16151561012483015260989290921c9091166101448201526001600160a01b03909116906381d23bd2906101640161188d565b6060600f6000838152602001908152602001600020805480602002602001604051908101604052809291908181526020016000905b82821015612b7457600084815260209081902060408051808201909152908401546001600160a01b03811682527401000000000000000000000000000000000000000090046bffffffffffffffffffffffff1681830152825260019092019101612b0f565b505050509050919050565b6000546001600160a01b03163314612bd95760405162461bcd60e51b815260206004820181905260248201527f4f776e61626c653a2063616c6c6572206973206e6f7420746865206f776e65726044820152606401610b03565b601354760100000000000000000000000000000000000000000000900460ff1615612c465760405162461bcd60e51b815260206004820152601060248201527f536565646572206973206c6f636b6564000000000000000000000000000000006044820152606401610b03565b601380547fffffffffffffffffffffffff0000000000000000000000000000000000000000166001600160a01b0383169081179091556040519081527fb3025222d01ce9a26c7f9d52bc3bfd0352366bd90a793c273fbfe1c81e0e288e90602001610bda565b60606019604051602001612cc09190614e86565b604051602081830303815290604052905090565b6000610d38612ce283611abd565b6040518060600160405280603d8152602001615548603d9139613c79565b6040517fc45527910000000000000000000000000000000000000000000000000000000081526001600160a01b038381166004830152600091818416917f0000000000000000000000000000000000000000000000000000000000000000169063c45527919060240160206040518083038186803b158015612d8157600080fd5b505afa158015612d95573d6000803e3d6000fd5b505050506040513d601f19601f82011682018060405250810190612db9919061496d565b6001600160a01b03161415612dd057506001610d38565b6001600160a01b0380841660009081526006602090815260408083209386168352929052205460ff1661171e565b6000546001600160a01b03163314612e585760405162461bcd60e51b815260206004820181905260248201527f4f776e61626c653a2063616c6c6572206973206e6f7420746865206f776e65726044820152606401610b03565b6001600160a01b038116612ed45760405162461bcd60e51b815260206004820152602660248201527f4f776e61626c653a206e6577206f776e657220697320746865207a65726f206160448201527f64647265737300000000000000000000000000000000000000000000000000006064820152608401610b03565b6118fc81613b88565b6000546001600160a01b03163314612f375760405162461bcd60e51b815260206004820181905260248201527f4f776e61626c653a2063616c6c6572206973206e6f7420746865206f776e65726044820152606401610b03565b60135474010000000000000000000000000000000000000000900460ff1615612fa25760405162461bcd60e51b815260206004820152601060248201527f4d696e746572206973206c6f636b6564000000000000000000000000000000006044820152606401610b03565b601180547fffffffffffffffffffffffff0000000000000000000000000000000000000000166001600160a01b0383169081179091556040519081527fad0f299ec81a386c98df0ac27dae11dd020ed1b56963c53a7292e7a3a314539a90602001610bda565b60007fffffffff0000000000000000000000000000000000000000000000000000000082167f780e9d63000000000000000000000000000000000000000000000000000000001480610d385750610d3882613cb1565b600081815260056020526040902080547fffffffffffffffffffffffff0000000000000000000000000000000000000000166001600160a01b03841690811790915581906130ab82611a32565b6001600160a01b03167f8c5be1e5ebec7d5bd14f71427d1e84f3dd0314c0f7b2291e5b200ac8c7c3b92560405160405180910390a45050565b600060145484106131375760405162461bcd60e51b815260206004820152601c60248201527f416c6c2077697a617264732068617665206265656e206d696e746564000000006044820152606401610b03565b6013546012546040517f66438bc2000000000000000000000000000000000000000000000000000000008152600481018790526001600160a01b039182166024820152851515604482015265ffffffffffff8516606482015260009291909116906366438bc2906084016101406040518083038186803b1580156131ba57600080fd5b505afa1580156131ce573d6000803e3d6000fd5b505050506040513d601f19601f820116820180604052508101906131f29190614c71565b6015600087815260200190815260200160002060008201518160000160006101000a81548165ffffffffffff021916908365ffffffffffff16021790555060208201518160000160066101000a81548165ffffffffffff021916908365ffffffffffff160217905550604082015181600001600c6101000a81548165ffffffffffff021916908365ffffffffffff16021790555060608201518160000160126101000a81548165ffffffffffff021916908365ffffffffffff16021790555060808201518160000160186101000a81548165ffffffffffff021916908365ffffffffffff16021790555060a08201518160010160006101000a81548165ffffffffffff021916908365ffffffffffff16021790555060c08201518160010160066101000a81548165ffffffffffff021916908365ffffffffffff16021790555060e082015181600101600c6101000a81548165ffffffffffff021916908365ffffffffffff1602179055506101008201518160010160126101000a81548160ff0219169083151502179055506101208201518160010160136101000a81548165ffffffffffff021916908365ffffffffffff1602179055509050604051806101400160405290816000820160009054906101000a900465ffffffffffff1665ffffffffffff1665ffffffffffff1681526020016000820160069054906101000a900465ffffffffffff1665ffffffffffff1665ffffffffffff16815260200160008201600c9054906101000a900465ffffffffffff1665ffffffffffff1665ffffffffffff1681526020016000820160129054906101000a900465ffffffffffff1665ffffffffffff1665ffffffffffff1681526020016000820160189054906101000a900465ffffffffffff1665ffffffffffff1665ffffffffffff1681526020016001820160009054906101000a900465ffffffffffff1665ffffffffffff1665ffffffffffff1681526020016001820160069054906101000a900465ffffffffffff1665ffffffffffff1665ffffffffffff16815260200160018201600c9054906101000a900465ffffffffffff1665ffffffffffff1665ffffffffffff1681526020016001820160129054906101000a900460ff161515151581526020016001820160139054906101000a900465ffffffffffff1665ffffffffffff1665ffffffffffff1681525050905061357d6135766000546001600160a01b031690565b8787613d94565b847fed9371a1c5090c1e97f8c79affd027822d569076959d7d72f1b48d2b957c0665826040516135ad9190614fea565b60405180910390a2849150505b949350505050565b60005b81518110156137565760006001600160a01b03168282815181106135eb576135eb61540a565b6020026020010151600001516001600160a01b0316141561364e5760405162461bcd60e51b815260206004820152601b60248201527f526563697069656e742073686f756c642062652070726573656e7400000000006044820152606401610b03565b8181815181106136605761366061540a565b6020026020010151602001516bffffffffffffffffffffffff16600014156136ca5760405162461bcd60e51b815260206004820181905260248201527f526f79616c74792076616c75652073686f756c6420626520706f7369746976656044820152606401610b03565b6000838152600f6020526040902082518390839081106136ec576136ec61540a565b6020908102919091018101518254600181018455600093845292829020815191909201516bffffffffffffffffffffffff1674010000000000000000000000000000000000000000026001600160a01b03909116179101558061374e81615330565b9150506135c5565b506126388282613f42565b6000818152600360205260408120546001600160a01b03166137eb5760405162461bcd60e51b815260206004820152602c60248201527f4552433732313a206f70657261746f7220717565727920666f72206e6f6e657860448201527f697374656e7420746f6b656e00000000000000000000000000000000000000006064820152608401610b03565b60006137f683611a32565b9050806001600160a01b0316846001600160a01b031614806138315750836001600160a01b031661382684610dd0565b6001600160a01b0316145b806135ba57506135ba8185612d00565b826001600160a01b031661385482611a32565b6001600160a01b0316146138d05760405162461bcd60e51b815260206004820152602960248201527f4552433732313a207472616e73666572206f6620746f6b656e2074686174206960448201527f73206e6f74206f776e00000000000000000000000000000000000000000000006064820152608401610b03565b6001600160a01b03821661394b5760405162461bcd60e51b8152602060048201526024808201527f4552433732313a207472616e7366657220746f20746865207a65726f2061646460448201527f72657373000000000000000000000000000000000000000000000000000000006064820152608401610b03565b613956838383613f7f565b61396160008261305e565b6001600160a01b038316600090815260046020526040812080546001929061398a90849061524f565b90915550506001600160a01b03821660009081526004602052604081208054600192906139b8908490615174565b909155505060008181526003602052604080822080547fffffffffffffffffffffffff0000000000000000000000000000000000000000166001600160a01b0386811691821790925591518493918716917fddf252ad1be2c89b69c2b068fc378daa952ba7f163c4a11628f55a4df523b3ef91a4505050565b6000613a3c82611a32565b9050613a4a81600084613f7f565b613a5560008361305e565b6001600160a01b0381166000908152600460205260408120805460019290613a7e90849061524f565b909155505060008281526003602052604080822080547fffffffffffffffffffffffff0000000000000000000000000000000000000000169055518391906001600160a01b038416907fddf252ad1be2c89b69c2b068fc378daa952ba7f163c4a11628f55a4df523b3ef908390a45050565b6000613afb836116f3565b6001600160a01b038481166000818152600b602052604080822080547fffffffffffffffffffffffff000000000000000000000000000000000000000016888616908117909155905194955093928516927f3134e8a2e6d97e929a7e54011ea5485d7d196dd5f0ba4d4ef95803e8e3fc257f9190a46000613b7b84612cd4565b905061118f828483613fa2565b600080546001600160a01b038381167fffffffffffffffffffffffff0000000000000000000000000000000000000000831681178455604051919092169283917f8be0079c531659141344cd1fd0a4f28419497f9722a3daafe3b4186f6b6457e09190a35050565b613bfb848484613841565b613c078484848461415f565b61118f5760405162461bcd60e51b815260206004820152603260248201527f4552433732313a207472616e7366657220746f206e6f6e20455243373231526560448201527f63656976657220696d706c656d656e74657200000000000000000000000000006064820152608401610b03565b6000816c010000000000000000000000008410613ca95760405162461bcd60e51b8152600401610b039190614fd7565b509192915050565b60007fffffffff0000000000000000000000000000000000000000000000000000000082167f80ac58cd000000000000000000000000000000000000000000000000000000001480613d4457507fffffffff0000000000000000000000000000000000000000000000000000000082167f5b5e139f00000000000000000000000000000000000000000000000000000000145b80610d3857507f01ffc9a7000000000000000000000000000000000000000000000000000000007fffffffff00000000000000000000000000000000000000000000000000000000831614610d38565b6001600160a01b038216613dea5760405162461bcd60e51b815260206004820181905260248201527f4552433732313a206d696e7420746f20746865207a65726f20616464726573736044820152606401610b03565b6000818152600360205260409020546001600160a01b031615613e4f5760405162461bcd60e51b815260206004820152601c60248201527f4552433732313a20746f6b656e20616c7265616479206d696e746564000000006044820152606401610b03565b613e5b60008383613f7f565b6001600160a01b0382166000908152600460205260408120805460019290613e84908490615174565b909155505060008181526003602052604080822080547fffffffffffffffffffffffff0000000000000000000000000000000000000000166001600160a01b03868116919091179091559051839291861691907fddf252ad1be2c89b69c2b068fc378daa952ba7f163c4a11628f55a4df523b3ef908290a480826001600160a01b0316846001600160a01b03167fddf252ad1be2c89b69c2b068fc378daa952ba7f163c4a11628f55a4df523b3ef60405160405180910390a4505050565b7f3fa96d7b6bcbfe71ef171666d84db3cf52fa2d1c8afdb1cc8e486177f208b7df8282604051613f739291906150d8565b60405180910390a15050565b613f8a838383614309565b610fa3613f96846116f3565b613f9f846116f3565b60015b816001600160a01b0316836001600160a01b031614158015613fd257506000816bffffffffffffffffffffffff16115b15610fa3576001600160a01b0383161561409d576001600160a01b0383166000908152600d602052604081205463ffffffff169081614012576000614064565b6001600160a01b0385166000908152600c6020526040812090614036600185615266565b63ffffffff16815260208101919091526040016000205464010000000090046bffffffffffffffffffffffff165b9050600061408b8285604051806060016040528060378152602001615585603791396143c1565b90506140998684848461440d565b5050505b6001600160a01b03821615610fa3576001600160a01b0382166000908152600d602052604081205463ffffffff1690816140d857600061412a565b6001600160a01b0384166000908152600c60205260408120906140fc600185615266565b63ffffffff16815260208101919091526040016000205464010000000090046bffffffffffffffffffffffff165b9050600061415182856040518060600160405280603681526020016154ce6036913961464f565b90506129668584848461440d565b60006001600160a01b0384163b15614301576040517f150b7a020000000000000000000000000000000000000000000000000000000081526001600160a01b0385169063150b7a02906141bc903390899088908890600401614f88565b602060405180830381600087803b1580156141d657600080fd5b505af1925050508015614206575060408051601f3d908101601f1916820190925261420391810190614b94565b60015b6142b6573d808015614234576040519150601f19603f3d011682016040523d82523d6000602084013e614239565b606091505b5080516142ae5760405162461bcd60e51b815260206004820152603260248201527f4552433732313a207472616e7366657220746f206e6f6e20455243373231526560448201527f63656976657220696d706c656d656e74657200000000000000000000000000006064820152608401610b03565b805181602001fd5b7fffffffff00000000000000000000000000000000000000000000000000000000167f150b7a02000000000000000000000000000000000000000000000000000000001490506135ba565b5060016135ba565b6001600160a01b0383166143645761435f81600980546000838152600a60205260408120829055600182018355919091527f6e1540171b6c0c960b71a7020d9f60077f6af931a8bbf590da0223dacf75c7af0155565b614387565b816001600160a01b0316836001600160a01b0316146143875761438783826146a6565b6001600160a01b03821661439e57610fa381614743565b826001600160a01b0316826001600160a01b031614610fa357610fa382826147f2565b6000836bffffffffffffffffffffffff16836bffffffffffffffffffffffff16111582906144025760405162461bcd60e51b8152600401610b039190614fd7565b506135ba838561528b565b60006144314360405180608001604052806044815260200161550460449139614836565b905060008463ffffffff1611801561448b57506001600160a01b0385166000908152600c6020526040812063ffffffff83169161446f600188615266565b63ffffffff908116825260208201929092526040016000205416145b15614514576001600160a01b0385166000908152600c6020526040812083916144b5600188615266565b63ffffffff168152602081019190915260400160002080546bffffffffffffffffffffffff92909216640100000000027fffffffffffffffffffffffffffffffff000000000000000000000000ffffffff9092169190911790556145f5565b60408051808201825263ffffffff80841682526bffffffffffffffffffffffff80861660208085019182526001600160a01b038b166000908152600c82528681208b8616825290915294909420925183549451909116640100000000027fffffffffffffffffffffffffffffffff000000000000000000000000000000009094169116179190911790556145a984600161518c565b6001600160a01b0386166000908152600d6020526040902080547fffffffffffffffffffffffffffffffffffffffffffffffffffffffff000000001663ffffffff929092169190911790555b604080516bffffffffffffffffffffffff8086168252841660208201526001600160a01b038716917fdec2bacdd2f05b59de34da9b523dff8be42e5e38e818c82fdb0bae774387a724910160405180910390a25050505050565b60008061465c84866151b4565b9050846bffffffffffffffffffffffff16816bffffffffffffffffffffffff161015839061469d5760405162461bcd60e51b8152600401610b039190614fd7565b50949350505050565b600060016146b384611abd565b6146bd919061524f565b600083815260086020526040902054909150808214614710576001600160a01b03841660009081526007602090815260408083208584528252808320548484528184208190558352600890915290208190555b5060009182526008602090815260408084208490556001600160a01b039094168352600781528383209183525290812055565b6009546000906147559060019061524f565b6000838152600a60205260408120546009805493945090928490811061477d5761477d61540a565b90600052602060002001549050806009838154811061479e5761479e61540a565b6000918252602080832090910192909255828152600a909152604080822084905585825281205560098054806147d6576147d66153db565b6001900381819060005260206000200160009055905550505050565b60006147fd83611abd565b6001600160a01b039093166000908152600760209081526040808320868452825280832085905593825260089052919091209190915550565b6000816401000000008410613ca95760405162461bcd60e51b8152600401610b039190614fd7565b82805461486a906152dc565b90600052602060002090601f01602090048101928261488c57600085556148d2565b82601f106148a557805160ff19168380011785556148d2565b828001600101855582156148d2579182015b828111156148d25782518255916020019190600101906148b7565b506148de9291506148e2565b5090565b5b808211156148de57600081556001016148e3565b600061490a6149058461514c565b61511b565b905082815283838301111561491e57600080fd5b828260208301376000602084830101529392505050565b80516149408161547d565b919050565b8051614940816154b9565b60006020828403121561496257600080fd5b813561171e81615468565b60006020828403121561497f57600080fd5b815161171e81615468565b6000806040838503121561499d57600080fd5b82356149a881615468565b915060208301356149b881615468565b809150509250929050565b6000806000606084860312156149d857600080fd5b83356149e381615468565b925060208401356149f381615468565b929592945050506040919091013590565b60008060008060808587031215614a1a57600080fd5b8435614a2581615468565b93506020850135614a3581615468565b925060408501359150606085013567ffffffffffffffff811115614a5857600080fd5b8501601f81018713614a6957600080fd5b614a78878235602084016148f7565b91505092959194509250565b60008060408385031215614a9757600080fd5b8235614aa281615468565b915060208301356149b88161547d565b60008060408385031215614ac557600080fd5b8235614ad081615468565b946020939093013593505050565b60008060008060008060c08789031215614af757600080fd5b8635614b0281615468565b95506020870135945060408701359350606087013560ff81168114614b2657600080fd5b9598949750929560808101359460a0909101359350915050565b60008060408385031215614b5357600080fd5b8235614b5e81615468565b9150602083013563ffffffff811681146149b857600080fd5b600060208284031215614b8957600080fd5b813561171e8161548b565b600060208284031215614ba657600080fd5b815161171e8161548b565b600060208284031215614bc357600080fd5b813567ffffffffffffffff811115614bda57600080fd5b8201601f81018413614beb57600080fd5b6135ba848235602084016148f7565b600060208284031215614c0c57600080fd5b815167ffffffffffffffff811115614c2357600080fd5b8201601f81018413614c3457600080fd5b8051614c426149058261514c565b818152856020838501011115614c5757600080fd5b614c688260208301602086016152b0565b95945050505050565b60006101408284031215614c8457600080fd5b614c8c6150f1565b614c9583614945565b8152614ca360208401614945565b6020820152614cb460408401614945565b6040820152614cc560608401614945565b6060820152614cd660808401614945565b6080820152614ce760a08401614945565b60a0820152614cf860c08401614945565b60c0820152614d0960e08401614945565b60e0820152610100614d1c818501614935565b90820152610120614d2e848201614945565b908201529392505050565b600060208284031215614d4b57600080fd5b5035919050565b600060208284031215614d6457600080fd5b5051919050565b600080600060608486031215614d8057600080fd5b833592506020840135614d9281615468565b915060408401356bffffffffffffffffffffffff81168114614db357600080fd5b809150509250925092565b60008060408385031215614dd157600080fd5b50508035926020909101359150565b600060208284031215614df257600080fd5b813561171e816154b9565b600081518084526020808501945080840160005b83811015614e4f57815180516001600160a01b031688528301516bffffffffffffffffffffffff168388015260409096019590820190600101614e11565b509495945050505050565b60008151808452614e728160208601602086016152b0565b601f01601f19169290920160200192915050565b7f697066733a2f2f000000000000000000000000000000000000000000000000008152600060076000845481600182811c915080831680614ec857607f831692505b6020808410821415614f01577f4e487b710000000000000000000000000000000000000000000000000000000086526022600452602486fd5b818015614f155760018114614f4857614f79565b7fffffffffffffffffffffffffffffffffffffffffffffffffffffffffffffff008616888b015287858b01019650614f79565b60008b81526020902060005b86811015614f6f5781548c82018b0152908501908301614f54565b505087858b010196505b50949998505050505050505050565b60006001600160a01b03808716835280861660208401525083604083015260806060830152614fba6080830184614e5a565b9695505050505050565b60208152600061171e6020830184614dfd565b60208152600061171e6020830184614e5a565b815165ffffffffffff16815261014081016020830151615014602084018265ffffffffffff169052565b50604083015161502e604084018265ffffffffffff169052565b506060830151615048606084018265ffffffffffff169052565b506080830151615062608084018265ffffffffffff169052565b5060a083015161507c60a084018265ffffffffffff169052565b5060c083015161509660c084018265ffffffffffff169052565b5060e08301516150b060e084018265ffffffffffff169052565b50610100838101511515908301526101209283015165ffffffffffff16929091019190915290565b8281526040602082015260006135ba6040830184614dfd565b604051610140810167ffffffffffffffff8111828210171561511557615115615439565b60405290565b604051601f8201601f1916810167ffffffffffffffff8111828210171561514457615144615439565b604052919050565b600067ffffffffffffffff82111561516657615166615439565b50601f01601f191660200190565b600082198211156151875761518761537d565b500190565b600063ffffffff8083168185168083038211156151ab576151ab61537d565b01949350505050565b60006bffffffffffffffffffffffff8083168185168083038211156151ab576151ab61537d565b6000826151ea576151ea6153ac565b500490565b600063ffffffff80841680615206576152066153ac565b92169190910492915050565b6000817fffffffffffffffffffffffffffffffffffffffffffffffffffffffffffffffff048311821515161561524a5761524a61537d565b500290565b6000828210156152615761526161537d565b500390565b600063ffffffff838116908316818110156152835761528361537d565b039392505050565b60006bffffffffffffffffffffffff838116908316818110156152835761528361537d565b60005b838110156152cb5781810151838201526020016152b3565b8381111561118f5750506000910152565b600181811c908216806152f057607f821691505b6020821081141561532a577f4e487b7100000000000000000000000000000000000000000000000000000000600052602260045260246000fd5b50919050565b60007fffffffffffffffffffffffffffffffffffffffffffffffffffffffffffffffff8214156153625761536261537d565b5060010190565b600082615378576153786153ac565b500690565b7f4e487b7100000000000000000000000000000000000000000000000000000000600052601160045260246000fd5b7f4e487b7100000000000000000000000000000000000000000000000000000000600052601260045260246000fd5b7f4e487b7100000000000000000000000000000000000000000000000000000000600052603160045260246000fd5b7f4e487b7100000000000000000000000000000000000000000000000000000000600052603260045260246000fd5b7f4e487b7100000000000000000000000000000000000000000000000000000000600052604160045260246000fd5b6001600160a01b03811681146118fc57600080fd5b80151581146118fc57600080fd5b7fffffffff00000000000000000000000000000000000000000000000000000000811681146118fc57600080fd5b65ffffffffffff811681146118fc57600080fdfe455243373231436865636b706f696e7461626c653a3a5f6d6f766544656c6567617465733a20616d6f756e74206f766572666c6f7773455243373231436865636b706f696e7461626c653a3a5f7772697465436865636b706f696e743a20626c6f636b206e756d62657220657863656564732033322062697473455243373231436865636b706f696e7461626c653a3a766f746573546f44656c65676174653a20616d6f756e7420657863656564732039362062697473455243373231436865636b706f696e7461626c653a3a5f6d6f766544656c6567617465733a20616d6f756e7420756e646572666c6f7773a26469706673582212209f4610e28802813c63ff13961a02ce5a356cc46b51fdeac72af79e185bad19fe64736f6c63430008060033516d59555252667a5a4837556b556d6666785969667954627951753561786738747439774739327770536f696769",
    "linkReferences": {},
    "deployedLinkReferences": {}
}