{
    "_format": "hh-sol-artifact-1",
    "contractName": "AuctionHouse",
    "sourceName": "contracts/internal/auctionhouse/AuctionHouse.sol",
    "abi": [
        {
            "anonymous": false,
            "inputs": [
                {
                    "indexed": true,
                    "internalType": "uint256",
                    "name": "wizardId",
                    "type": "uint256"
                },
                {
                    "indexed": true,
                    "internalType": "uint256",
                    "name": "aId",
                    "type": "uint256"
                },
                {
                    "indexed": false,
                    "internalType": "address",
                    "name": "sender",
                    "type": "address"
                },
                {
                    "indexed": false,
                    "internalType": "uint256",
                    "name": "value",
                    "type": "uint256"
                },
                {
                    "indexed": false,
                    "internalType": "bool",
                    "name": "extended",
                    "type": "bool"
                }
            ],
            "name": "AuctionBid",
            "type": "event"
        },
        {
            "anonymous": false,
            "inputs": [
                {
                    "indexed": true,
                    "internalType": "uint256",
                    "name": "cap",
                    "type": "uint256"
                }
            ],
            "name": "AuctionCapReached",
            "type": "event"
        },
        {
            "anonymous": false,
            "inputs": [
                {
                    "indexed": true,
                    "internalType": "uint256",
                    "name": "cap",
                    "type": "uint256"
                }
            ],
            "name": "AuctionCapUpdated",
            "type": "event"
        },
        {
            "anonymous": false,
            "inputs": [
                {
                    "indexed": true,
                    "internalType": "uint256",
                    "name": "wizardId",
                    "type": "uint256"
                },
                {
                    "indexed": true,
                    "internalType": "uint256",
                    "name": "aId",
                    "type": "uint256"
                },
                {
                    "indexed": false,
                    "internalType": "uint256",
                    "name": "startTime",
                    "type": "uint256"
                },
                {
                    "indexed": false,
                    "internalType": "uint256",
                    "name": "endTime",
                    "type": "uint256"
                },
                {
                    "indexed": false,
                    "internalType": "bool",
                    "name": "oneOfOne",
                    "type": "bool"
                }
            ],
            "name": "AuctionCreated",
            "type": "event"
        },
        {
            "anonymous": false,
            "inputs": [
                {
                    "indexed": true,
                    "internalType": "uint256",
                    "name": "wizardId",
                    "type": "uint256"
                },
                {
                    "indexed": true,
                    "internalType": "uint256",
                    "name": "aId",
                    "type": "uint256"
                },
                {
                    "indexed": false,
                    "internalType": "uint256",
                    "name": "endTime",
                    "type": "uint256"
                }
            ],
            "name": "AuctionExtended",
            "type": "event"
        },
        {
            "anonymous": false,
            "inputs": [
                {
                    "indexed": false,
                    "internalType": "uint256",
                    "name": "minBidIncrementPercentage",
                    "type": "uint256"
                }
            ],
            "name": "AuctionMinBidIncrementPercentageUpdated",
            "type": "event"
        },
        {
            "anonymous": false,
            "inputs": [
                {
                    "indexed": false,
                    "internalType": "bool",
                    "name": "auctionOneOfOne",
                    "type": "bool"
                }
            ],
            "name": "AuctionOneOfOne",
            "type": "event"
        },
        {
            "anonymous": false,
            "inputs": [
                {
                    "indexed": false,
                    "internalType": "uint256",
                    "name": "reservePrice",
                    "type": "uint256"
                }
            ],
            "name": "AuctionReservePriceUpdated",
            "type": "event"
        },
        {
            "anonymous": false,
            "inputs": [
                {
                    "indexed": true,
                    "internalType": "uint256",
                    "name": "wizardId",
                    "type": "uint256"
                },
                {
                    "indexed": true,
                    "internalType": "uint256",
                    "name": "aId",
                    "type": "uint256"
                },
                {
                    "indexed": false,
                    "internalType": "address",
                    "name": "winner",
                    "type": "address"
                },
                {
                    "indexed": false,
                    "internalType": "uint256",
                    "name": "amount",
                    "type": "uint256"
                }
            ],
            "name": "AuctionSettled",
            "type": "event"
        },
        {
            "anonymous": false,
            "inputs": [
                {
                    "indexed": false,
                    "internalType": "uint256",
                    "name": "timeBuffer",
                    "type": "uint256"
                }
            ],
            "name": "AuctionTimeBufferUpdated",
            "type": "event"
        },
        {
            "anonymous": false,
            "inputs": [
                {
                    "indexed": false,
                    "internalType": "address",
                    "name": "creatorsDAO",
                    "type": "address"
                }
            ],
            "name": "CreatorsDAOUpdated",
            "type": "event"
        },
        {
            "anonymous": false,
            "inputs": [
                {
                    "indexed": true,
                    "internalType": "address",
                    "name": "previousOwner",
                    "type": "address"
                },
                {
                    "indexed": true,
                    "internalType": "address",
                    "name": "newOwner",
                    "type": "address"
                }
            ],
            "name": "OwnershipTransferred",
            "type": "event"
        },
        {
            "anonymous": false,
            "inputs": [
                {
                    "indexed": false,
                    "internalType": "address",
                    "name": "account",
                    "type": "address"
                }
            ],
            "name": "Paused",
            "type": "event"
        },
        {
            "anonymous": false,
            "inputs": [
                {
                    "indexed": false,
                    "internalType": "address",
                    "name": "account",
                    "type": "address"
                }
            ],
            "name": "Unpaused",
            "type": "event"
        },
        {
            "inputs": [],
            "name": "auctionCount",
            "outputs": [
                {
                    "internalType": "uint8",
                    "name": "",
                    "type": "uint8"
                }
            ],
            "stateMutability": "view",
            "type": "function"
        },
        {
            "inputs": [],
            "name": "auctionOneOfOne",
            "outputs": [
                {
                    "internalType": "bool",
                    "name": "",
                    "type": "bool"
                }
            ],
            "stateMutability": "view",
            "type": "function"
        },
        {
            "inputs": [
                {
                    "internalType": "uint256",
                    "name": "",
                    "type": "uint256"
                }
            ],
            "name": "auctions",
            "outputs": [
                {
                    "internalType": "uint256",
                    "name": "wizardId",
                    "type": "uint256"
                },
                {
                    "internalType": "uint256",
                    "name": "amount",
                    "type": "uint256"
                },
                {
                    "internalType": "uint256",
                    "name": "startTime",
                    "type": "uint256"
                },
                {
                    "internalType": "uint256",
                    "name": "endTime",
                    "type": "uint256"
                },
                {
                    "internalType": "address payable",
                    "name": "bidder",
                    "type": "address"
                },
                {
                    "internalType": "bool",
                    "name": "settled",
                    "type": "bool"
                }
            ],
            "stateMutability": "view",
            "type": "function"
        },
        {
            "inputs": [
                {
                    "internalType": "uint256",
                    "name": "wizardId",
                    "type": "uint256"
                },
                {
                    "internalType": "uint256",
                    "name": "aId",
                    "type": "uint256"
                }
            ],
            "name": "createBid",
            "outputs": [],
            "stateMutability": "payable",
            "type": "function"
        },
        {
            "inputs": [],
            "name": "creatorFeePercent",
            "outputs": [
                {
                    "internalType": "uint256",
                    "name": "",
                    "type": "uint256"
                }
            ],
            "stateMutability": "view",
            "type": "function"
        },
        {
            "inputs": [],
            "name": "creatorsDAO",
            "outputs": [
                {
                    "internalType": "address",
                    "name": "",
                    "type": "address"
                }
            ],
            "stateMutability": "view",
            "type": "function"
        },
        {
            "inputs": [],
            "name": "duration",
            "outputs": [
                {
                    "internalType": "uint256",
                    "name": "",
                    "type": "uint256"
                }
            ],
            "stateMutability": "view",
            "type": "function"
        },
        {
            "inputs": [
                {
                    "internalType": "contract IWizardToken",
                    "name": "_wizards",
                    "type": "address"
                },
                {
                    "internalType": "address",
                    "name": "_creatorsDAO",
                    "type": "address"
                },
                {
                    "internalType": "address",
                    "name": "_weth",
                    "type": "address"
                },
                {
                    "internalType": "uint256",
                    "name": "_timeBuffer",
                    "type": "uint256"
                },
                {
                    "internalType": "uint256",
                    "name": "_reservePrice",
                    "type": "uint256"
                },
                {
                    "internalType": "uint8",
                    "name": "_minBidIncrementPercentage",
                    "type": "uint8"
                },
                {
                    "internalType": "uint256",
                    "name": "_duration",
                    "type": "uint256"
                },
                {
                    "internalType": "bool",
                    "name": "_auctionOneOfOne",
                    "type": "bool"
                },
                {
                    "internalType": "uint256",
                    "name": "_wizardCap",
                    "type": "uint256"
                }
            ],
            "name": "initialize",
            "outputs": [],
            "stateMutability": "nonpayable",
            "type": "function"
        },
        {
            "inputs": [],
            "name": "lastWizardId",
            "outputs": [
                {
                    "internalType": "uint256",
                    "name": "",
                    "type": "uint256"
                }
            ],
            "stateMutability": "view",
            "type": "function"
        },
        {
            "inputs": [],
            "name": "minBidIncrementPercentage",
            "outputs": [
                {
                    "internalType": "uint8",
                    "name": "",
                    "type": "uint8"
                }
            ],
            "stateMutability": "view",
            "type": "function"
        },
        {
            "inputs": [],
            "name": "oneOfOneId",
            "outputs": [
                {
                    "internalType": "uint48",
                    "name": "",
                    "type": "uint48"
                }
            ],
            "stateMutability": "view",
            "type": "function"
        },
        {
            "inputs": [],
            "name": "owner",
            "outputs": [
                {
                    "internalType": "address",
                    "name": "",
                    "type": "address"
                }
            ],
            "stateMutability": "view",
            "type": "function"
        },
        {
            "inputs": [],
            "name": "pause",
            "outputs": [],
            "stateMutability": "nonpayable",
            "type": "function"
        },
        {
            "inputs": [],
            "name": "paused",
            "outputs": [
                {
                    "internalType": "bool",
                    "name": "",
                    "type": "bool"
                }
            ],
            "stateMutability": "view",
            "type": "function"
        },
        {
            "inputs": [],
            "name": "renounceOwnership",
            "outputs": [],
            "stateMutability": "nonpayable",
            "type": "function"
        },
        {
            "inputs": [],
            "name": "reservePrice",
            "outputs": [
                {
                    "internalType": "uint256",
                    "name": "",
                    "type": "uint256"
                }
            ],
            "stateMutability": "view",
            "type": "function"
        },
        {
            "inputs": [
                {
                    "internalType": "bool",
                    "name": "_auctionOneOfOne",
                    "type": "bool"
                }
            ],
            "name": "setAuctionOneOfOne",
            "outputs": [],
            "stateMutability": "nonpayable",
            "type": "function"
        },
        {
            "inputs": [
                {
                    "internalType": "address",
                    "name": "_creatorsDAO",
                    "type": "address"
                }
            ],
            "name": "setCreatorsDAO",
            "outputs": [],
            "stateMutability": "nonpayable",
            "type": "function"
        },
        {
            "inputs": [
                {
                    "internalType": "uint8",
                    "name": "_minBidIncrementPercentage",
                    "type": "uint8"
                }
            ],
            "name": "setMinBidIncrementPercentage",
            "outputs": [],
            "stateMutability": "nonpayable",
            "type": "function"
        },
        {
            "inputs": [
                {
                    "internalType": "uint48",
                    "name": "_oneOfOneId",
                    "type": "uint48"
                }
            ],
            "name": "setOneOfOneId",
            "outputs": [],
            "stateMutability": "nonpayable",
            "type": "function"
        },
        {
            "inputs": [
                {
                    "internalType": "uint256",
                    "name": "_reservePrice",
                    "type": "uint256"
                }
            ],
            "name": "setReservePrice",
            "outputs": [],
            "stateMutability": "nonpayable",
            "type": "function"
        },
        {
            "inputs": [
                {
                    "internalType": "uint256",
                    "name": "_timeBuffer",
                    "type": "uint256"
                }
            ],
            "name": "setTimeBuffer",
            "outputs": [],
            "stateMutability": "nonpayable",
            "type": "function"
        },
        {
            "inputs": [
                {
                    "internalType": "uint256",
                    "name": "_cap",
                    "type": "uint256"
                }
            ],
            "name": "setWizardCap",
            "outputs": [],
            "stateMutability": "nonpayable",
            "type": "function"
        },
        {
            "inputs": [
                {
                    "internalType": "uint256",
                    "name": "aId",
                    "type": "uint256"
                }
            ],
            "name": "settleAuction",
            "outputs": [],
            "stateMutability": "nonpayable",
            "type": "function"
        },
        {
            "inputs": [],
            "name": "settleCurrentAndCreateNewAuction",
            "outputs": [],
            "stateMutability": "nonpayable",
            "type": "function"
        },
        {
            "inputs": [],
            "name": "timeBuffer",
            "outputs": [
                {
                    "internalType": "uint256",
                    "name": "",
                    "type": "uint256"
                }
            ],
            "stateMutability": "view",
            "type": "function"
        },
        {
            "inputs": [
                {
                    "internalType": "address",
                    "name": "newOwner",
                    "type": "address"
                }
            ],
            "name": "transferOwnership",
            "outputs": [],
            "stateMutability": "nonpayable",
            "type": "function"
        },
        {
            "inputs": [],
            "name": "unpause",
            "outputs": [],
            "stateMutability": "nonpayable",
            "type": "function"
        },
        {
            "inputs": [],
            "name": "weth",
            "outputs": [
                {
                    "internalType": "address",
                    "name": "",
                    "type": "address"
                }
            ],
            "stateMutability": "view",
            "type": "function"
        },
        {
            "inputs": [],
            "name": "wizardCap",
            "outputs": [
                {
                    "internalType": "uint256",
                    "name": "",
                    "type": "uint256"
                }
            ],
            "stateMutability": "view",
            "type": "function"
        },
        {
            "inputs": [],
            "name": "wizards",
            "outputs": [
                {
                    "internalType": "contract IWizardToken",
                    "name": "",
                    "type": "address"
                }
            ],
            "stateMutability": "view",
            "type": "function"
        }
    ],
    "bytecode": "0x608060405234801561001057600080fd5b50613150806100206000396000f3fe6080604052600436106101d85760003560e01c8063715018a611610102578063b7751c7111610095578063ec91f2a411610064578063ec91f2a41461060f578063f25efffc14610625578063f2fde38b1461063a578063f9e96b681461065a57600080fd5b8063b7751c7114610599578063ce9c7c0d146105ac578063db2e1eed146105cc578063e8e59c61146105e257600080fd5b806396c47c80116100d157806396c47c80146105125780639d36f4ca14610532578063ad1a26ca14610552578063b296024d1461057f57600080fd5b8063715018a61461049957806377e5f6d4146104ae5780638456cb59146104d25780638da5cb5b146104e757600080fd5b80633fc8cef31161017a578063571a26a011610149578063571a26a01461037d5780635c975abb1461043f57806365fe174e146104635780637120334b1461047957600080fd5b80633fc8cef3146102d55780634321bca2146103275780634ea9a09e1461034757806353613dd31461036757600080fd5b80632ad71573116101b65780632ad71573146102525780632e9936111461027e57806336ebdb38146102a05780633f4ba83a146102c057600080fd5b80630c775f31146101dd5780630fb5a6b41461020657806320d3548a1461021c575b600080fd5b3480156101e957600080fd5b506101f360d35481565b6040519081526020015b60405180910390f35b34801561021257600080fd5b506101f360d05481565b34801561022857600080fd5b5060d45461023b9065ffffffffffff1681565b60405165ffffffffffff90911681526020016101fd565b34801561025e57600080fd5b5060d65461026c9060ff1681565b60405160ff90911681526020016101fd565b34801561028a57600080fd5b5061029e610299366004612cfb565b61067a565b005b3480156102ac57600080fd5b5061029e6102bb366004612da7565b61073a565b3480156102cc57600080fd5b5061029e6107ea565b3480156102e157600080fd5b5060cc546103029073ffffffffffffffffffffffffffffffffffffffff1681565b60405173ffffffffffffffffffffffffffffffffffffffff90911681526020016101fd565b34801561033357600080fd5b5061029e610342366004612c65565b610979565b34801561035357600080fd5b5061029e610362366004612cfb565b610b50565b34801561037357600080fd5b506101f360ca5481565b34801561038957600080fd5b506103fa610398366004612cfb565b60d560205260009081526040902080546001820154600283015460038401546004909401549293919290919073ffffffffffffffffffffffffffffffffffffffff81169074010000000000000000000000000000000000000000900460ff1686565b60408051968752602087019590955293850192909252606084015273ffffffffffffffffffffffffffffffffffffffff166080830152151560a082015260c0016101fd565b34801561044b57600080fd5b5060335460ff165b60405190151581526020016101fd565b34801561046f57600080fd5b506101f360d15481565b34801561048557600080fd5b5061029e610494366004612cfb565b610bea565b3480156104a557600080fd5b5061029e610c86565b3480156104ba57600080fd5b5060d454610453906601000000000000900460ff1681565b3480156104de57600080fd5b5061029e610cf7565b3480156104f357600080fd5b5060975473ffffffffffffffffffffffffffffffffffffffff16610302565b34801561051e57600080fd5b5061029e61052d366004612c2b565b610d66565b34801561053e57600080fd5b5061029e61054d366004612c0e565b610e38565b34801561055e57600080fd5b5060c9546103029073ffffffffffffffffffffffffffffffffffffffff1681565b34801561058b57600080fd5b5060cf5461026c9060ff1681565b61029e6105a7366004612d5d565b610f12565b3480156105b857600080fd5b5061029e6105c7366004612cfb565b61133d565b3480156105d857600080fd5b506101f360ce5481565b3480156105ee57600080fd5b5060cb546103029073ffffffffffffffffffffffffffffffffffffffff1681565b34801561061b57600080fd5b506101f360cd5481565b34801561063157600080fd5b5061029e6113d9565b34801561064657600080fd5b5061029e610655366004612c0e565b61160d565b34801561066657600080fd5b5061029e610675366004612d7f565b611709565b60335460ff166106d15760405162461bcd60e51b815260206004820152601460248201527f5061757361626c653a206e6f742070617573656400000000000000000000000060448201526064015b60405180910390fd5b600260655414156107245760405162461bcd60e51b815260206004820152601f60248201527f5265656e7472616e637947756172643a207265656e7472616e742063616c6c0060448201526064016106c8565b6002606555610732816117a9565b506001606555565b60975473ffffffffffffffffffffffffffffffffffffffff1633146107a15760405162461bcd60e51b815260206004820181905260248201527f4f776e61626c653a2063616c6c6572206973206e6f7420746865206f776e657260448201526064016106c8565b60cf805460ff191660ff83169081179091556040519081527fec5ccd96cc77b6219e9d44143df916af68fc169339ea7de5008ff15eae13450d906020015b60405180910390a150565b60975473ffffffffffffffffffffffffffffffffffffffff1633146108515760405162461bcd60e51b815260206004820181905260248201527f4f776e61626c653a2063616c6c6572206973206e6f7420746865206f776e657260448201526064016106c8565b610859611ba3565b60015b6005811161093057600081815260d56020908152604091829020825160c081018452815481526001820154928101929092526002810154928201839052600381015460608301526004015473ffffffffffffffffffffffffffffffffffffffff8116608083015274010000000000000000000000000000000000000000900460ff16151560a08201529015806108f357508060a001515b1561091d5760d15460d3541115801561090f575060d25460ff16155b1561091d5761091d82611c4c565b508061092881612f86565b91505061085c565b5060d15460d3541480610945575060d25460ff165b156109775760d1546040517fb1ea45d0cb577280c164ebf840414c2f762de02e90c3789f184f5d1210ba340090600090a25b565b600054610100900460ff1680610992575060005460ff16155b610a045760405162461bcd60e51b815260206004820152602e60248201527f496e697469616c697a61626c653a20636f6e747261637420697320616c72656160448201527f647920696e697469616c697a656400000000000000000000000000000000000060648201526084016106c8565b600054610100900460ff16158015610a26576000805461ffff19166101011790555b610a2e611f65565b610a36612053565b610a3e612108565b610a466121c5565b60c980547fffffffffffffffffffffffff000000000000000000000000000000000000000090811673ffffffffffffffffffffffffffffffffffffffff8c81169190911790925560d68054600560ff1991821617909155600a60ca5560d480547fffffffffffffffffffffffffffffffffffffffffffffffffff00ffffffffffff1666010000000000008815150217905560cb805483168e851617905560cc8054909216928b1692909217905560cd88905560ce87905560cf805490911660ff871617905560d084905560d18290558015610b4457600080547fffffffffffffffffffffffffffffffffffffffffffffffffffffffffffff00ff1690555b50505050505050505050565b60975473ffffffffffffffffffffffffffffffffffffffff163314610bb75760405162461bcd60e51b815260206004820181905260248201527f4f776e61626c653a2063616c6c6572206973206e6f7420746865206f776e657260448201526064016106c8565b60d181905560405181907fbe38d13216e8b69a914248c03935492c515fffb82f7200ec0cbb3edc05ef9ca490600090a250565b60975473ffffffffffffffffffffffffffffffffffffffff163314610c515760405162461bcd60e51b815260206004820181905260248201527f4f776e61626c653a2063616c6c6572206973206e6f7420746865206f776e657260448201526064016106c8565b60cd8190556040518181527f1b55d9f7002bda4490f467e326f22a4a847629c0f2d1ed421607d318d25b410d906020016107df565b60975473ffffffffffffffffffffffffffffffffffffffff163314610ced5760405162461bcd60e51b815260206004820181905260248201527f4f776e61626c653a2063616c6c6572206973206e6f7420746865206f776e657260448201526064016106c8565b610977600061224d565b60975473ffffffffffffffffffffffffffffffffffffffff163314610d5e5760405162461bcd60e51b815260206004820181905260248201527f4f776e61626c653a2063616c6c6572206973206e6f7420746865206f776e657260448201526064016106c8565b6109776121c5565b60975473ffffffffffffffffffffffffffffffffffffffff163314610dcd5760405162461bcd60e51b815260206004820181905260248201527f4f776e61626c653a2063616c6c6572206973206e6f7420746865206f776e657260448201526064016106c8565b60d480548215156601000000000000027fffffffffffffffffffffffffffffffffffffffffffffffffff00ffffffffffff9091161790556040517f6a3f007a6dfa4acf6309c5fffc3597e819baca2260cf138443ba05227482838c906107df90831515815260200190565b60c95473ffffffffffffffffffffffffffffffffffffffff163314610e9f5760405162461bcd60e51b815260206004820152601e60248201527f53656e646572206973206e6f74207468652063726561746f72732044414f000060448201526064016106c8565b60c980547fffffffffffffffffffffffff00000000000000000000000000000000000000001673ffffffffffffffffffffffffffffffffffffffff83169081179091556040519081527f25e7d5026e0fd314deaf23ad9dd18d9accf2131502d2711ba2aa789853ac7c92906020016107df565b60026065541415610f655760405162461bcd60e51b815260206004820152601f60248201527f5265656e7472616e637947756172643a207265656e7472616e742063616c6c0060448201526064016106c8565b60026065819055600082815260d56020908152604091829020825160c0810184528154815260018201549281019290925292830154918101919091526003820154606082015260049091015473ffffffffffffffffffffffffffffffffffffffff8116608083015260ff740100000000000000000000000000000000000000009091048116151560a083015260d654168211801590611005575060018210155b6110515760405162461bcd60e51b815260206004820181905260248201527f41756374696f6e204964206973206e6f742063757272656e746c79206f70656e60448201526064016106c8565b805183146110a15760405162461bcd60e51b815260206004820152601960248201527f57697a617264206e6f7420757020666f722061756374696f6e0000000000000060448201526064016106c8565b806060015142106110f45760405162461bcd60e51b815260206004820152600f60248201527f41756374696f6e2065787069726564000000000000000000000000000000000060448201526064016106c8565b60ce543410156111465760405162461bcd60e51b815260206004820152601f60248201527f4d7573742073656e64206174206c65617374207265736572766550726963650060448201526064016106c8565b60cf5460208201516064916111609160ff90911690612e5b565b61116a9190612e47565b81602001516111799190612e2f565b3410156111f0576040805162461bcd60e51b81526020600482015260248101919091527f4d7573742073656e64206d6f7265207468616e206c617374206269642062792060448201527f6d696e426964496e6372656d656e7450657263656e7461676520616d6f756e7460648201526084016106c8565b608081015173ffffffffffffffffffffffffffffffffffffffff81161561121f5761121f8183602001516122c4565b600083815260d56020526040812034600182015560040180547fffffffffffffffffffffffff0000000000000000000000000000000000000000163317905560cd546060840151611271904290612e98565b10905080156112a15760cd546112879042612e2f565b60608401819052600085815260d560205260409020600301555b8251604080513381523460208201528315158183015290518692917f886006522303045b0c17b0633eea996eefd70e9b660ad0dfd4344e1b7f63cac7919081900360600190a38015611331578383600001517f5aa381c998833b1dd4263e146e2e5e8098b463f9f975bb0f9c6d167c0d44a323856060015160405161132891815260200190565b60405180910390a35b50506001606555505050565b60975473ffffffffffffffffffffffffffffffffffffffff1633146113a45760405162461bcd60e51b815260206004820181905260248201527f4f776e61626c653a2063616c6c6572206973206e6f7420746865206f776e657260448201526064016106c8565b60ce8190556040518181527f6ab2e127d7fdf53b8f304e59d3aab5bfe97979f52a85479691a6fab27a28a6b2906020016107df565b6002606554141561142c5760405162461bcd60e51b815260206004820152601f60248201527f5265656e7472616e637947756172643a207265656e7472616e742063616c6c0060448201526064016106c8565b600260655560335460ff16156114845760405162461bcd60e51b815260206004820152601060248201527f5061757361626c653a207061757365640000000000000000000000000000000060448201526064016106c8565b60d15460d354106114d75760405162461bcd60e51b815260206004820152601f60248201527f416c6c2077697a617264732068617665206265656e2061756374696f6e65640060448201526064016106c8565b60055b6001811061155557600081815260d560205260409020600301544210156115435760405162461bcd60e51b815260206004820152601f60248201527f416c6c2061756374696f6e732068617665206e6f7420636f6d706c657465640060448201526064016106c8565b8061154d81612edf565b9150506114da565b5060015b6005811161157c5761156a816117a9565b8061157481612f86565b915050611559565b5060015b600581116115bf5760d15460d3541115801561159f575060d25460ff16155b156115ad576115ad81611c4c565b806115b781612f86565b915050611580565b5060d15460d35414806115d4575060d25460ff165b156116065760d1546040517fb1ea45d0cb577280c164ebf840414c2f762de02e90c3789f184f5d1210ba340090600090a25b6001606555565b60975473ffffffffffffffffffffffffffffffffffffffff1633146116745760405162461bcd60e51b815260206004820181905260248201527f4f776e61626c653a2063616c6c6572206973206e6f7420746865206f776e657260448201526064016106c8565b73ffffffffffffffffffffffffffffffffffffffff81166116fd5760405162461bcd60e51b815260206004820152602660248201527f4f776e61626c653a206e6577206f776e657220697320746865207a65726f206160448201527f646472657373000000000000000000000000000000000000000000000000000060648201526084016106c8565b6117068161224d565b50565b60975473ffffffffffffffffffffffffffffffffffffffff1633146117705760405162461bcd60e51b815260206004820181905260248201527f4f776e61626c653a2063616c6c6572206973206e6f7420746865206f776e657260448201526064016106c8565b60d480547fffffffffffffffffffffffffffffffffffffffffffffffffffff0000000000001665ffffffffffff92909216919091179055565b600081815260d56020908152604091829020825160c081018452815481526001820154928101929092526002810154928201839052600381015460608301526004015473ffffffffffffffffffffffffffffffffffffffff8116608083015274010000000000000000000000000000000000000000900460ff16151560a0820152906118775760405162461bcd60e51b815260206004820152601460248201527f41756374696f6e206861736e277420626567756e00000000000000000000000060448201526064016106c8565b8060a00151156118c95760405162461bcd60e51b815260206004820181905260248201527f41756374696f6e2068617320616c7265616479206265656e20736574746c656460448201526064016106c8565b806060015142101561191d5760405162461bcd60e51b815260206004820152601860248201527f41756374696f6e206861736e277420636f6d706c65746564000000000000000060448201526064016106c8565b600082815260d56020526040902060040180547fffffffffffffffffffffff00ffffffffffffffffffffffffffffffffffffffff1674010000000000000000000000000000000000000000179055608081015173ffffffffffffffffffffffffffffffffffffffff16611a1b5760cb5481516040517f42966c6800000000000000000000000000000000000000000000000000000000815273ffffffffffffffffffffffffffffffffffffffff909216916342966c68916119e49160040190815260200190565b600060405180830381600087803b1580156119fe57600080fd5b505af1158015611a12573d6000803e3d6000fd5b50505050611ab5565b60cb54608082015182516040517f23b872dd00000000000000000000000000000000000000000000000000000000815230600482015273ffffffffffffffffffffffffffffffffffffffff928316602482015260448101919091529116906323b872dd90606401600060405180830381600087803b158015611a9c57600080fd5b505af1158015611ab0573d6000803e3d6000fd5b505050505b602081015115611b4257602081015160ca54600090611ae290606490611adc908590612407565b906124ab565b60c954909150611b089073ffffffffffffffffffffffffffffffffffffffff16826122c4565b6000611b1483836124ed565b9050611b3e611b3860975473ffffffffffffffffffffffffffffffffffffffff1690565b826122c4565b5050505b805160808201516020808401516040805173ffffffffffffffffffffffffffffffffffffffff9094168452918301528492917fa3f81c0e157dc1e05cb31e254314bbde8e3878d9ff78b10ef6abfe316492bfbe910160405180910390a35050565b60335460ff16611bf55760405162461bcd60e51b815260206004820152601460248201527f5061757361626c653a206e6f742070617573656400000000000000000000000060448201526064016106c8565b6033805460ff191690557f5db9ee0a495bf2e6ff9c91a7834c1ba4fdd244a5e8aa4e537bd38aeae4b073aa335b60405173ffffffffffffffffffffffffffffffffffffffff909116815260200160405180910390a1565b611c57600582612fbf565b158015611c70575060d4546601000000000000900460ff165b15611f5c5760cb5460d4546040517f8c825c0800000000000000000000000000000000000000000000000000000000815265ffffffffffff909116600482015273ffffffffffffffffffffffffffffffffffffffff90911690638c825c08906024016040805180830381600087803b158015611ceb57600080fd5b505af1925050508015611d39575060408051601f3d9081017fffffffffffffffffffffffffffffffffffffffffffffffffffffffffffffffe0168201909252611d3691810190612d2d565b60015b611e2d57611d45613031565b806308c379a01415611e215750611d5a61304d565b80611d655750611e23565b6040517f416c6c2077697a617264732068617665206265656e206d696e746564000000006020820152603c016040516020818303038152906040528051906020012081604051602001611db89190612dc2565b6040516020818303038152906040528051906020012014611e0857611ddc8261252f565b60d480547fffffffffffffffffffffffffffffffffffffffffffffffffff00ffffffffffff1690555050565b60d2805460ff19166001179055611e1d6121c5565b5050565b505b3d6000803e3d6000fd5b60d382905560d0544290600090611e449083612e2f565b6040805160c08101825286815260006020808301828152838501888152606085018781526080860185815260a087018681528e875260d59095529487902095518655915160018601555160028501555160038401559051600490920180549151151574010000000000000000000000000000000000000000027fffffffffffffffffffffff00000000000000000000000000000000000000000090921673ffffffffffffffffffffffffffffffffffffffff939093169290921717905551909150859085907fc8d9c04256dd9b713ccf76d3a5aa0e8d835cd0679022ad8684dbbac99e62357b90611f4d9086908690899092835260208301919091521515604082015260600190565b60405180910390a35050505050565b6117068161252f565b600054610100900460ff1680611f7e575060005460ff16155b611ff05760405162461bcd60e51b815260206004820152602e60248201527f496e697469616c697a61626c653a20636f6e747261637420697320616c72656160448201527f647920696e697469616c697a656400000000000000000000000000000000000060648201526084016106c8565b600054610100900460ff16158015612012576000805461ffff19166101011790555b61201a6127a7565b612022612884565b801561170657600080547fffffffffffffffffffffffffffffffffffffffffffffffffffffffffffff00ff16905550565b600054610100900460ff168061206c575060005460ff16155b6120de5760405162461bcd60e51b815260206004820152602e60248201527f496e697469616c697a61626c653a20636f6e747261637420697320616c72656160448201527f647920696e697469616c697a656400000000000000000000000000000000000060648201526084016106c8565b600054610100900460ff16158015612100576000805461ffff19166101011790555b61202261296c565b600054610100900460ff1680612121575060005460ff16155b6121935760405162461bcd60e51b815260206004820152602e60248201527f496e697469616c697a61626c653a20636f6e747261637420697320616c72656160448201527f647920696e697469616c697a656400000000000000000000000000000000000060648201526084016106c8565b600054610100900460ff161580156121b5576000805461ffff19166101011790555b6121bd6127a7565b612022612a4f565b60335460ff16156122185760405162461bcd60e51b815260206004820152601060248201527f5061757361626c653a207061757365640000000000000000000000000000000060448201526064016106c8565b6033805460ff191660011790557f62e78cea01bee320cd4e420270b5ea74000d11b0c9f74754ebdbfc544b05a258611c223390565b6097805473ffffffffffffffffffffffffffffffffffffffff8381167fffffffffffffffffffffffff0000000000000000000000000000000000000000831681179093556040519116919082907f8be0079c531659141344cd1fd0a4f28419497f9722a3daafe3b4186f6b6457e090600090a35050565b6122ce8282612b05565b611e1d5760cc60009054906101000a900473ffffffffffffffffffffffffffffffffffffffff1673ffffffffffffffffffffffffffffffffffffffff1663d0e30db0826040518263ffffffff1660e01b81526004016000604051808303818588803b15801561233c57600080fd5b505af1158015612350573d6000803e3d6000fd5b505060cc546040517fa9059cbb00000000000000000000000000000000000000000000000000000000815273ffffffffffffffffffffffffffffffffffffffff878116600483015260248201879052909116935063a9059cbb92506044019050602060405180830381600087803b1580156123ca57600080fd5b505af11580156123de573d6000803e3d6000fd5b505050506040513d601f19601f820116820180604052508101906124029190612c48565b505050565b600082612416575060006124a5565b60006124228385612e5b565b90508261242f8583612e47565b146124a25760405162461bcd60e51b815260206004820152602160248201527f536166654d6174683a206d756c7469706c69636174696f6e206f766572666c6f60448201527f770000000000000000000000000000000000000000000000000000000000000060648201526084016106c8565b90505b92915050565b60006124a283836040518060400160405280601a81526020017f536166654d6174683a206469766973696f6e206279207a65726f000000000000815250612b90565b60006124a283836040518060400160405280601e81526020017f536166654d6174683a207375627472616374696f6e206f766572666c6f770000815250612bc7565b60cb60009054906101000a900473ffffffffffffffffffffffffffffffffffffffff1673ffffffffffffffffffffffffffffffffffffffff16631249c58b6040518163ffffffff1660e01b8152600401602060405180830381600087803b15801561259957600080fd5b505af19250505080156125e7575060408051601f3d9081017fffffffffffffffffffffffffffffffffffffffffffffffffffffffffffffffe01682019092526125e491810190612d14565b60015b612689576125f3613031565b806308c379a01415611e21575061260861304d565b806126135750611e23565b6040517f416c6c2077697a617264732068617665206265656e206d696e746564000000006020820152603c0160405160208183030381529060405280519060200120816040516020016126669190612dc2565b6040516020818303038152906040528051906020012014611e0857611e1d6121c5565b60d381905560d05442906000906126a09083612e2f565b6040805160c0810182528581526000602080830182815283850188815260608086018881526080870186815260a088018781528e885260d587528988209851895594516001890155925160028801555160038701559051600490950180549251151574010000000000000000000000000000000000000000027fffffffffffffffffffffff00000000000000000000000000000000000000000090931673ffffffffffffffffffffffffffffffffffffffff9096169590951791909117909355835187815290810185905292830152919250859185917fc8d9c04256dd9b713ccf76d3a5aa0e8d835cd0679022ad8684dbbac99e62357b910160405180910390a350505050565b600054610100900460ff16806127c0575060005460ff16155b6128325760405162461bcd60e51b815260206004820152602e60248201527f496e697469616c697a61626c653a20636f6e747261637420697320616c72656160448201527f647920696e697469616c697a656400000000000000000000000000000000000060648201526084016106c8565b600054610100900460ff16158015612022576000805461ffff1916610101179055801561170657600080547fffffffffffffffffffffffffffffffffffffffffffffffffffffffffffff00ff16905550565b600054610100900460ff168061289d575060005460ff16155b61290f5760405162461bcd60e51b815260206004820152602e60248201527f496e697469616c697a61626c653a20636f6e747261637420697320616c72656160448201527f647920696e697469616c697a656400000000000000000000000000000000000060648201526084016106c8565b600054610100900460ff16158015612931576000805461ffff19166101011790555b6033805460ff19169055801561170657600080547fffffffffffffffffffffffffffffffffffffffffffffffffffffffffffff00ff16905550565b600054610100900460ff1680612985575060005460ff16155b6129f75760405162461bcd60e51b815260206004820152602e60248201527f496e697469616c697a61626c653a20636f6e747261637420697320616c72656160448201527f647920696e697469616c697a656400000000000000000000000000000000000060648201526084016106c8565b600054610100900460ff16158015612a19576000805461ffff19166101011790555b6001606555801561170657600080547fffffffffffffffffffffffffffffffffffffffffffffffffffffffffffff00ff16905550565b600054610100900460ff1680612a68575060005460ff16155b612ada5760405162461bcd60e51b815260206004820152602e60248201527f496e697469616c697a61626c653a20636f6e747261637420697320616c72656160448201527f647920696e697469616c697a656400000000000000000000000000000000000060648201526084016106c8565b600054610100900460ff16158015612afc576000805461ffff19166101011790555b6120223361224d565b60408051600080825260208201909252819073ffffffffffffffffffffffffffffffffffffffff851690617530908590604051612b429190612dc2565b600060405180830381858888f193505050503d8060008114612b80576040519150601f19603f3d011682016040523d82523d6000602084013e612b85565b606091505b509095945050505050565b60008183612bb15760405162461bcd60e51b81526004016106c89190612dde565b506000612bbe8486612e47565b95945050505050565b60008184841115612beb5760405162461bcd60e51b81526004016106c89190612dde565b506000612bbe8486612e98565b803560ff81168114612c0957600080fd5b919050565b600060208284031215612c2057600080fd5b81356124a2816130ea565b600060208284031215612c3d57600080fd5b81356124a28161310c565b600060208284031215612c5a57600080fd5b81516124a28161310c565b60008060008060008060008060006101208a8c031215612c8457600080fd5b8935612c8f816130ea565b985060208a0135612c9f816130ea565b975060408a0135612caf816130ea565b965060608a0135955060808a01359450612ccb60a08b01612bf8565b935060c08a0135925060e08a0135612ce28161310c565b809250506101008a013590509295985092959850929598565b600060208284031215612d0d57600080fd5b5035919050565b600060208284031215612d2657600080fd5b5051919050565b60008060408385031215612d4057600080fd5b825191506020830151612d528161310c565b809150509250929050565b60008060408385031215612d7057600080fd5b50508035926020909101359150565b600060208284031215612d9157600080fd5b813565ffffffffffff811681146124a257600080fd5b600060208284031215612db957600080fd5b6124a282612bf8565b60008251612dd4818460208701612eaf565b9190910192915050565b6020815260008251806020840152612dfd816040850160208701612eaf565b601f017fffffffffffffffffffffffffffffffffffffffffffffffffffffffffffffffe0169190910160400192915050565b60008219821115612e4257612e42612fd3565b500190565b600082612e5657612e56613002565b500490565b6000817fffffffffffffffffffffffffffffffffffffffffffffffffffffffffffffffff0483118215151615612e9357612e93612fd3565b500290565b600082821015612eaa57612eaa612fd3565b500390565b60005b83811015612eca578181015183820152602001612eb2565b83811115612ed9576000848401525b50505050565b600081612eee57612eee612fd3565b507fffffffffffffffffffffffffffffffffffffffffffffffffffffffffffffffff0190565b7fffffffffffffffffffffffffffffffffffffffffffffffffffffffffffffffe0601f830116810181811067ffffffffffffffff82111715612f7f577f4e487b7100000000000000000000000000000000000000000000000000000000600052604160045260246000fd5b6040525050565b60007fffffffffffffffffffffffffffffffffffffffffffffffffffffffffffffffff821415612fb857612fb8612fd3565b5060010190565b600082612fce57612fce613002565b500690565b7f4e487b7100000000000000000000000000000000000000000000000000000000600052601160045260246000fd5b7f4e487b7100000000000000000000000000000000000000000000000000000000600052601260045260246000fd5b600060033d111561304a5760046000803e5060005160e01c5b90565b600060443d101561305b5790565b6040517ffffffffffffffffffffffffffffffffffffffffffffffffffffffffffffffffc803d016004833e81513d67ffffffffffffffff81602484011181841117156130a957505050505090565b82850191508151818111156130c15750505050505090565b843d87010160208285010111156130db5750505050505090565b612b8560208286010187612f14565b73ffffffffffffffffffffffffffffffffffffffff8116811461170657600080fd5b801515811461170657600080fdfea26469706673582212201e3ea693f1a29754b50338df7766450a8f595231a9015d2ef60ba2ba9364b00e64736f6c63430008060033",
    "linkReferences": {},
    "deployedLinkReferences": {}
}