{
    "_format": "hh-sol-artifact-1",
    "contractName": "Seeder",
    "sourceName": "contracts/internal/seeder/Seeder.sol",
    "abi": [
        {
            "inputs": [
                {
                    "internalType": "uint256",
                    "name": "wizardId",
                    "type": "uint256"
                },
                {
                    "internalType": "contract IDescriptor",
                    "name": "descriptor",
                    "type": "address"
                },
                {
                    "internalType": "bool",
                    "name": "isOneOfOne",
                    "type": "bool"
                },
                {
                    "internalType": "uint48",
                    "name": "oneOfOneIndex",
                    "type": "uint48"
                }
            ],
            "name": "generateSeed",
            "outputs": [
                {
                    "components": [
                        {
                            "internalType": "uint48",
                            "name": "background",
                            "type": "uint48"
                        },
                        {
                            "internalType": "uint48",
                            "name": "skin",
                            "type": "uint48"
                        },
                        {
                            "internalType": "uint48",
                            "name": "clothes",
                            "type": "uint48"
                        },
                        {
                            "internalType": "uint48",
                            "name": "eyes",
                            "type": "uint48"
                        },
                        {
                            "internalType": "uint48",
                            "name": "mouth",
                            "type": "uint48"
                        },
                        {
                            "internalType": "uint48",
                            "name": "accessory",
                            "type": "uint48"
                        },
                        {
                            "internalType": "uint48",
                            "name": "bgItem",
                            "type": "uint48"
                        },
                        {
                            "internalType": "uint48",
                            "name": "hat",
                            "type": "uint48"
                        },
                        {
                            "internalType": "bool",
                            "name": "oneOfOne",
                            "type": "bool"
                        },
                        {
                            "internalType": "uint48",
                            "name": "oneOfOneIndex",
                            "type": "uint48"
                        }
                    ],
                    "internalType": "struct ISeeder.Seed",
                    "name": "",
                    "type": "tuple"
                }
            ],
            "stateMutability": "view",
            "type": "function"
        }
    ],
    "bytecode": "0x608060405234801561001057600080fd5b506108e4806100206000396000f3fe608060405234801561001057600080fd5b506004361061002b5760003560e01c806366438bc214610030575b600080fd5b61004361003e3660046106cb565b610059565b6040516100509190610747565b60405180910390f35b6040805161014081018252600080825260208201819052918101829052606081018290526080810182905260a0810182905260c0810182905260e081018290526101008101829052610120810191909152821561010f57506040805161014081018252600080825260208201819052918101829052606081018290526080810182905260a0810182905260c0810182905260e081019190915282151561010082015265ffffffffffff82166101208201526106aa565b600061011c600143610835565b604080519140602083015281018790526060016040516020818303038152906040528051906020012060001c905060008573ffffffffffffffffffffffffffffffffffffffff16634531c0a86040518163ffffffff1660e01b815260040160206040518083038186803b15801561019257600080fd5b505afa1580156101a6573d6000803e3d6000fd5b505050506040513d601f19601f820116820180604052508101906101ca91906106b2565b905060008673ffffffffffffffffffffffffffffffffffffffff1663ad1a4c3d6040518163ffffffff1660e01b815260040160206040518083038186803b15801561021457600080fd5b505afa158015610228573d6000803e3d6000fd5b505050506040513d601f19601f8201168201806040525081019061024c91906106b2565b905060008773ffffffffffffffffffffffffffffffffffffffff16630de518666040518163ffffffff1660e01b815260040160206040518083038186803b15801561029657600080fd5b505afa1580156102aa573d6000803e3d6000fd5b505050506040513d601f19601f820116820180604052508101906102ce91906106b2565b905060008873ffffffffffffffffffffffffffffffffffffffff16638104468c6040518163ffffffff1660e01b815260040160206040518083038186803b15801561031857600080fd5b505afa15801561032c573d6000803e3d6000fd5b505050506040513d601f19601f8201168201806040525081019061035091906106b2565b905060008973ffffffffffffffffffffffffffffffffffffffff1663fcbc920c6040518163ffffffff1660e01b815260040160206040518083038186803b15801561039a57600080fd5b505afa1580156103ae573d6000803e3d6000fd5b505050506040513d601f19601f820116820180604052508101906103d291906106b2565b905060008a73ffffffffffffffffffffffffffffffffffffffff16632c6be7cb6040518163ffffffff1660e01b815260040160206040518083038186803b15801561041c57600080fd5b505afa158015610430573d6000803e3d6000fd5b505050506040513d601f19601f8201168201806040525081019061045491906106b2565b905060008b73ffffffffffffffffffffffffffffffffffffffff16634daebac26040518163ffffffff1660e01b815260040160206040518083038186803b15801561049e57600080fd5b505afa1580156104b2573d6000803e3d6000fd5b505050506040513d601f19601f820116820180604052508101906104d691906106b2565b905060008c73ffffffffffffffffffffffffffffffffffffffff16636b4311576040518163ffffffff1660e01b815260040160206040518083038186803b15801561052057600080fd5b505afa158015610534573d6000803e3d6000fd5b505050506040513d601f19601f8201168201806040525081019061055891906106b2565b9050604051806101400160405280898b65ffffffffffff1661057a9190610873565b65ffffffffffff1681526020018860308c901c65ffffffffffff1661059f9190610873565b65ffffffffffff1681526020018460308c901c65ffffffffffff166105c49190610873565b65ffffffffffff1681526020018660c08c901c65ffffffffffff166105e99190610873565b65ffffffffffff1681526020018760908c901c65ffffffffffff1661060e9190610873565b65ffffffffffff1681526020018360608c901c65ffffffffffff166106339190610873565b65ffffffffffff1681526020018260608c901c65ffffffffffff166106589190610873565b65ffffffffffff1681526020018560908c901c65ffffffffffff1661067d9190610873565b65ffffffffffff1681526020018d151581526020018c65ffffffffffff1681525099505050505050505050505b949350505050565b6000602082840312156106c457600080fd5b5051919050565b600080600080608085870312156106e157600080fd5b84359350602085013573ffffffffffffffffffffffffffffffffffffffff8116811461070c57600080fd5b92506040850135801515811461072157600080fd5b9150606085013565ffffffffffff8116811461073c57600080fd5b939692955090935050565b815165ffffffffffff16815261014081016020830151610771602084018265ffffffffffff169052565b50604083015161078b604084018265ffffffffffff169052565b5060608301516107a5606084018265ffffffffffff169052565b5060808301516107bf608084018265ffffffffffff169052565b5060a08301516107d960a084018265ffffffffffff169052565b5060c08301516107f360c084018265ffffffffffff169052565b5060e083015161080d60e084018265ffffffffffff169052565b50610100838101511515908301526101209283015165ffffffffffff16929091019190915290565b60008282101561086e577f4e487b7100000000000000000000000000000000000000000000000000000000600052601160045260246000fd5b500390565b6000826108a9577f4e487b7100000000000000000000000000000000000000000000000000000000600052601260045260246000fd5b50069056fea2646970667358221220f0ea7604511d9758856e916b4ff4328902ddf42fcb57fc68fa11832f916389ae64736f6c63430008060033",
    "linkReferences": {},
    "deployedLinkReferences": {}
}