{
    "_format": "hh-sol-artifact-1",
    "contractName": "Descriptor",
    "sourceName": "contracts/internal/descriptor/Descriptor.sol",
    "abi": [
        {
            "anonymous": false,
            "inputs": [
                {
                    "indexed": false,
                    "internalType": "string",
                    "name": "baseURI",
                    "type": "string"
                }
            ],
            "name": "BaseURIUpdated",
            "type": "event"
        },
        {
            "anonymous": false,
            "inputs": [
                {
                    "indexed": false,
                    "internalType": "bool",
                    "name": "enabled",
                    "type": "bool"
                }
            ],
            "name": "DataURIToggled",
            "type": "event"
        },
        {
            "anonymous": false,
            "inputs": [
                {
                    "indexed": true,
                    "internalType": "address",
                    "name": "previousOwner",
                    "type": "address"
                },
                {
                    "indexed": true,
                    "internalType": "address",
                    "name": "newOwner",
                    "type": "address"
                }
            ],
            "name": "OwnershipTransferred",
            "type": "event"
        },
        {
            "anonymous": false,
            "inputs": [],
            "name": "PartsLocked",
            "type": "event"
        },
        {
            "inputs": [
                {
                    "internalType": "uint256",
                    "name": "",
                    "type": "uint256"
                }
            ],
            "name": "accessory",
            "outputs": [
                {
                    "internalType": "bytes",
                    "name": "",
                    "type": "bytes"
                }
            ],
            "stateMutability": "view",
            "type": "function"
        },
        {
            "inputs": [],
            "name": "accessoryCount",
            "outputs": [
                {
                    "internalType": "uint256",
                    "name": "",
                    "type": "uint256"
                }
            ],
            "stateMutability": "view",
            "type": "function"
        },
        {
            "inputs": [
                {
                    "internalType": "bytes",
                    "name": "_accessory",
                    "type": "bytes"
                }
            ],
            "name": "addAccessory",
            "outputs": [],
            "stateMutability": "nonpayable",
            "type": "function"
        },
        {
            "inputs": [
                {
                    "internalType": "string",
                    "name": "_background",
                    "type": "string"
                }
            ],
            "name": "addBackground",
            "outputs": [],
            "stateMutability": "nonpayable",
            "type": "function"
        },
        {
            "inputs": [
                {
                    "internalType": "bytes",
                    "name": "_bgItem",
                    "type": "bytes"
                }
            ],
            "name": "addBgItem",
            "outputs": [],
            "stateMutability": "nonpayable",
            "type": "function"
        },
        {
            "inputs": [
                {
                    "internalType": "bytes",
                    "name": "_clothes",
                    "type": "bytes"
                }
            ],
            "name": "addClothes",
            "outputs": [],
            "stateMutability": "nonpayable",
            "type": "function"
        },
        {
            "inputs": [
                {
                    "internalType": "uint8",
                    "name": "_paletteIndex",
                    "type": "uint8"
                },
                {
                    "internalType": "string",
                    "name": "_color",
                    "type": "string"
                }
            ],
            "name": "addColorToPalette",
            "outputs": [],
            "stateMutability": "nonpayable",
            "type": "function"
        },
        {
            "inputs": [
                {
                    "internalType": "bytes",
                    "name": "_eyes",
                    "type": "bytes"
                }
            ],
            "name": "addEyes",
            "outputs": [],
            "stateMutability": "nonpayable",
            "type": "function"
        },
        {
            "inputs": [
                {
                    "internalType": "bytes",
                    "name": "_hat",
                    "type": "bytes"
                }
            ],
            "name": "addHat",
            "outputs": [],
            "stateMutability": "nonpayable",
            "type": "function"
        },
        {
            "inputs": [
                {
                    "internalType": "bytes[]",
                    "name": "_accessory",
                    "type": "bytes[]"
                }
            ],
            "name": "addManyAccessories",
            "outputs": [],
            "stateMutability": "nonpayable",
            "type": "function"
        },
        {
            "inputs": [
                {
                    "internalType": "string[]",
                    "name": "_backgrounds",
                    "type": "string[]"
                }
            ],
            "name": "addManyBackgrounds",
            "outputs": [],
            "stateMutability": "nonpayable",
            "type": "function"
        },
        {
            "inputs": [
                {
                    "internalType": "bytes[]",
                    "name": "_bgItems",
                    "type": "bytes[]"
                }
            ],
            "name": "addManyBgItems",
            "outputs": [],
            "stateMutability": "nonpayable",
            "type": "function"
        },
        {
            "inputs": [
                {
                    "internalType": "bytes[]",
                    "name": "_clothes",
                    "type": "bytes[]"
                }
            ],
            "name": "addManyClothes",
            "outputs": [],
            "stateMutability": "nonpayable",
            "type": "function"
        },
        {
            "inputs": [
                {
                    "internalType": "uint8",
                    "name": "paletteIndex",
                    "type": "uint8"
                },
                {
                    "internalType": "string[]",
                    "name": "newColors",
                    "type": "string[]"
                }
            ],
            "name": "addManyColorsToPalette",
            "outputs": [],
            "stateMutability": "nonpayable",
            "type": "function"
        },
        {
            "inputs": [
                {
                    "internalType": "bytes[]",
                    "name": "_eyes",
                    "type": "bytes[]"
                }
            ],
            "name": "addManyEyes",
            "outputs": [],
            "stateMutability": "nonpayable",
            "type": "function"
        },
        {
            "inputs": [
                {
                    "internalType": "bytes[]",
                    "name": "_hats",
                    "type": "bytes[]"
                }
            ],
            "name": "addManyHats",
            "outputs": [],
            "stateMutability": "nonpayable",
            "type": "function"
        },
        {
            "inputs": [
                {
                    "internalType": "bytes[]",
                    "name": "_mouths",
                    "type": "bytes[]"
                }
            ],
            "name": "addManyMouths",
            "outputs": [],
            "stateMutability": "nonpayable",
            "type": "function"
        },
        {
            "inputs": [
                {
                    "internalType": "bytes[]",
                    "name": "_oneOfOnes",
                    "type": "bytes[]"
                }
            ],
            "name": "addManyOneOfOnes",
            "outputs": [],
            "stateMutability": "nonpayable",
            "type": "function"
        },
        {
            "inputs": [
                {
                    "internalType": "bytes[]",
                    "name": "_skins",
                    "type": "bytes[]"
                }
            ],
            "name": "addManySkins",
            "outputs": [],
            "stateMutability": "nonpayable",
            "type": "function"
        },
        {
            "inputs": [
                {
                    "internalType": "bytes",
                    "name": "_mouth",
                    "type": "bytes"
                }
            ],
            "name": "addMouth",
            "outputs": [],
            "stateMutability": "nonpayable",
            "type": "function"
        },
        {
            "inputs": [
                {
                    "internalType": "bytes",
                    "name": "_oneOfOne",
                    "type": "bytes"
                }
            ],
            "name": "addOneOfOne",
            "outputs": [],
            "stateMutability": "nonpayable",
            "type": "function"
        },
        {
            "inputs": [
                {
                    "internalType": "bytes",
                    "name": "_skin",
                    "type": "bytes"
                }
            ],
            "name": "addSkin",
            "outputs": [],
            "stateMutability": "nonpayable",
            "type": "function"
        },
        {
            "inputs": [],
            "name": "arePartsLocked",
            "outputs": [
                {
                    "internalType": "bool",
                    "name": "",
                    "type": "bool"
                }
            ],
            "stateMutability": "view",
            "type": "function"
        },
        {
            "inputs": [],
            "name": "backgroundCount",
            "outputs": [
                {
                    "internalType": "uint256",
                    "name": "",
                    "type": "uint256"
                }
            ],
            "stateMutability": "view",
            "type": "function"
        },
        {
            "inputs": [
                {
                    "internalType": "uint256",
                    "name": "",
                    "type": "uint256"
                }
            ],
            "name": "backgrounds",
            "outputs": [
                {
                    "internalType": "string",
                    "name": "",
                    "type": "string"
                }
            ],
            "stateMutability": "view",
            "type": "function"
        },
        {
            "inputs": [],
            "name": "baseURI",
            "outputs": [
                {
                    "internalType": "string",
                    "name": "",
                    "type": "string"
                }
            ],
            "stateMutability": "view",
            "type": "function"
        },
        {
            "inputs": [
                {
                    "internalType": "uint256",
                    "name": "",
                    "type": "uint256"
                }
            ],
            "name": "bgItems",
            "outputs": [
                {
                    "internalType": "bytes",
                    "name": "",
                    "type": "bytes"
                }
            ],
            "stateMutability": "view",
            "type": "function"
        },
        {
            "inputs": [],
            "name": "bgItemsCount",
            "outputs": [
                {
                    "internalType": "uint256",
                    "name": "",
                    "type": "uint256"
                }
            ],
            "stateMutability": "view",
            "type": "function"
        },
        {
            "inputs": [
                {
                    "internalType": "uint256",
                    "name": "",
                    "type": "uint256"
                }
            ],
            "name": "clothes",
            "outputs": [
                {
                    "internalType": "bytes",
                    "name": "",
                    "type": "bytes"
                }
            ],
            "stateMutability": "view",
            "type": "function"
        },
        {
            "inputs": [],
            "name": "clothesCount",
            "outputs": [
                {
                    "internalType": "uint256",
                    "name": "",
                    "type": "uint256"
                }
            ],
            "stateMutability": "view",
            "type": "function"
        },
        {
            "inputs": [
                {
                    "internalType": "uint256",
                    "name": "tokenId",
                    "type": "uint256"
                },
                {
                    "components": [
                        {
                            "internalType": "uint48",
                            "name": "background",
                            "type": "uint48"
                        },
                        {
                            "internalType": "uint48",
                            "name": "skin",
                            "type": "uint48"
                        },
                        {
                            "internalType": "uint48",
                            "name": "clothes",
                            "type": "uint48"
                        },
                        {
                            "internalType": "uint48",
                            "name": "eyes",
                            "type": "uint48"
                        },
                        {
                            "internalType": "uint48",
                            "name": "mouth",
                            "type": "uint48"
                        },
                        {
                            "internalType": "uint48",
                            "name": "accessory",
                            "type": "uint48"
                        },
                        {
                            "internalType": "uint48",
                            "name": "bgItem",
                            "type": "uint48"
                        },
                        {
                            "internalType": "uint48",
                            "name": "hat",
                            "type": "uint48"
                        },
                        {
                            "internalType": "bool",
                            "name": "oneOfOne",
                            "type": "bool"
                        },
                        {
                            "internalType": "uint48",
                            "name": "oneOfOneIndex",
                            "type": "uint48"
                        }
                    ],
                    "internalType": "struct ISeeder.Seed",
                    "name": "seed",
                    "type": "tuple"
                }
            ],
            "name": "dataURI",
            "outputs": [
                {
                    "internalType": "string",
                    "name": "",
                    "type": "string"
                }
            ],
            "stateMutability": "view",
            "type": "function"
        },
        {
            "inputs": [
                {
                    "internalType": "uint256",
                    "name": "",
                    "type": "uint256"
                }
            ],
            "name": "eyes",
            "outputs": [
                {
                    "internalType": "bytes",
                    "name": "",
                    "type": "bytes"
                }
            ],
            "stateMutability": "view",
            "type": "function"
        },
        {
            "inputs": [],
            "name": "eyesCount",
            "outputs": [
                {
                    "internalType": "uint256",
                    "name": "",
                    "type": "uint256"
                }
            ],
            "stateMutability": "view",
            "type": "function"
        },
        {
            "inputs": [
                {
                    "components": [
                        {
                            "internalType": "uint48",
                            "name": "background",
                            "type": "uint48"
                        },
                        {
                            "internalType": "uint48",
                            "name": "skin",
                            "type": "uint48"
                        },
                        {
                            "internalType": "uint48",
                            "name": "clothes",
                            "type": "uint48"
                        },
                        {
                            "internalType": "uint48",
                            "name": "eyes",
                            "type": "uint48"
                        },
                        {
                            "internalType": "uint48",
                            "name": "mouth",
                            "type": "uint48"
                        },
                        {
                            "internalType": "uint48",
                            "name": "accessory",
                            "type": "uint48"
                        },
                        {
                            "internalType": "uint48",
                            "name": "bgItem",
                            "type": "uint48"
                        },
                        {
                            "internalType": "uint48",
                            "name": "hat",
                            "type": "uint48"
                        },
                        {
                            "internalType": "bool",
                            "name": "oneOfOne",
                            "type": "bool"
                        },
                        {
                            "internalType": "uint48",
                            "name": "oneOfOneIndex",
                            "type": "uint48"
                        }
                    ],
                    "internalType": "struct ISeeder.Seed",
                    "name": "seed",
                    "type": "tuple"
                }
            ],
            "name": "generateSVGImage",
            "outputs": [
                {
                    "internalType": "string",
                    "name": "",
                    "type": "string"
                }
            ],
            "stateMutability": "view",
            "type": "function"
        },
        {
            "inputs": [
                {
                    "internalType": "string",
                    "name": "name",
                    "type": "string"
                },
                {
                    "internalType": "string",
                    "name": "description",
                    "type": "string"
                },
                {
                    "components": [
                        {
                            "internalType": "uint48",
                            "name": "background",
                            "type": "uint48"
                        },
                        {
                            "internalType": "uint48",
                            "name": "skin",
                            "type": "uint48"
                        },
                        {
                            "internalType": "uint48",
                            "name": "clothes",
                            "type": "uint48"
                        },
                        {
                            "internalType": "uint48",
                            "name": "eyes",
                            "type": "uint48"
                        },
                        {
                            "internalType": "uint48",
                            "name": "mouth",
                            "type": "uint48"
                        },
                        {
                            "internalType": "uint48",
                            "name": "accessory",
                            "type": "uint48"
                        },
                        {
                            "internalType": "uint48",
                            "name": "bgItem",
                            "type": "uint48"
                        },
                        {
                            "internalType": "uint48",
                            "name": "hat",
                            "type": "uint48"
                        },
                        {
                            "internalType": "bool",
                            "name": "oneOfOne",
                            "type": "bool"
                        },
                        {
                            "internalType": "uint48",
                            "name": "oneOfOneIndex",
                            "type": "uint48"
                        }
                    ],
                    "internalType": "struct ISeeder.Seed",
                    "name": "seed",
                    "type": "tuple"
                }
            ],
            "name": "genericDataURI",
            "outputs": [
                {
                    "internalType": "string",
                    "name": "",
                    "type": "string"
                }
            ],
            "stateMutability": "view",
            "type": "function"
        },
        {
            "inputs": [
                {
                    "internalType": "uint256",
                    "name": "",
                    "type": "uint256"
                }
            ],
            "name": "hats",
            "outputs": [
                {
                    "internalType": "bytes",
                    "name": "",
                    "type": "bytes"
                }
            ],
            "stateMutability": "view",
            "type": "function"
        },
        {
            "inputs": [],
            "name": "hatsCount",
            "outputs": [
                {
                    "internalType": "uint256",
                    "name": "",
                    "type": "uint256"
                }
            ],
            "stateMutability": "view",
            "type": "function"
        },
        {
            "inputs": [],
            "name": "isDataURIEnabled",
            "outputs": [
                {
                    "internalType": "bool",
                    "name": "",
                    "type": "bool"
                }
            ],
            "stateMutability": "view",
            "type": "function"
        },
        {
            "inputs": [],
            "name": "lastOneOfOneCount",
            "outputs": [
                {
                    "internalType": "uint256",
                    "name": "",
                    "type": "uint256"
                }
            ],
            "stateMutability": "view",
            "type": "function"
        },
        {
            "inputs": [],
            "name": "lockParts",
            "outputs": [],
            "stateMutability": "nonpayable",
            "type": "function"
        },
        {
            "inputs": [
                {
                    "internalType": "uint256",
                    "name": "",
                    "type": "uint256"
                }
            ],
            "name": "mouths",
            "outputs": [
                {
                    "internalType": "bytes",
                    "name": "",
                    "type": "bytes"
                }
            ],
            "stateMutability": "view",
            "type": "function"
        },
        {
            "inputs": [],
            "name": "mouthsCount",
            "outputs": [
                {
                    "internalType": "uint256",
                    "name": "",
                    "type": "uint256"
                }
            ],
            "stateMutability": "view",
            "type": "function"
        },
        {
            "inputs": [
                {
                    "internalType": "uint256",
                    "name": "",
                    "type": "uint256"
                }
            ],
            "name": "oneOfOnes",
            "outputs": [
                {
                    "internalType": "bytes",
                    "name": "",
                    "type": "bytes"
                }
            ],
            "stateMutability": "view",
            "type": "function"
        },
        {
            "inputs": [],
            "name": "oneOfOnesCount",
            "outputs": [
                {
                    "internalType": "uint256",
                    "name": "",
                    "type": "uint256"
                }
            ],
            "stateMutability": "view",
            "type": "function"
        },
        {
            "inputs": [],
            "name": "owner",
            "outputs": [
                {
                    "internalType": "address",
                    "name": "",
                    "type": "address"
                }
            ],
            "stateMutability": "view",
            "type": "function"
        },
        {
            "inputs": [
                {
                    "internalType": "uint8",
                    "name": "",
                    "type": "uint8"
                },
                {
                    "internalType": "uint256",
                    "name": "",
                    "type": "uint256"
                }
            ],
            "name": "palettes",
            "outputs": [
                {
                    "internalType": "string",
                    "name": "",
                    "type": "string"
                }
            ],
            "stateMutability": "view",
            "type": "function"
        },
        {
            "inputs": [],
            "name": "renounceOwnership",
            "outputs": [],
            "stateMutability": "nonpayable",
            "type": "function"
        },
        {
            "inputs": [
                {
                    "internalType": "string",
                    "name": "_baseURI",
                    "type": "string"
                }
            ],
            "name": "setBaseURI",
            "outputs": [],
            "stateMutability": "nonpayable",
            "type": "function"
        },
        {
            "inputs": [
                {
                    "internalType": "uint256",
                    "name": "",
                    "type": "uint256"
                }
            ],
            "name": "skins",
            "outputs": [
                {
                    "internalType": "bytes",
                    "name": "",
                    "type": "bytes"
                }
            ],
            "stateMutability": "view",
            "type": "function"
        },
        {
            "inputs": [],
            "name": "skinsCount",
            "outputs": [
                {
                    "internalType": "uint256",
                    "name": "",
                    "type": "uint256"
                }
            ],
            "stateMutability": "view",
            "type": "function"
        },
        {
            "inputs": [],
            "name": "toggleDataURIEnabled",
            "outputs": [],
            "stateMutability": "nonpayable",
            "type": "function"
        },
        {
            "inputs": [
                {
                    "internalType": "uint256",
                    "name": "tokenId",
                    "type": "uint256"
                },
                {
                    "components": [
                        {
                            "internalType": "uint48",
                            "name": "background",
                            "type": "uint48"
                        },
                        {
                            "internalType": "uint48",
                            "name": "skin",
                            "type": "uint48"
                        },
                        {
                            "internalType": "uint48",
                            "name": "clothes",
                            "type": "uint48"
                        },
                        {
                            "internalType": "uint48",
                            "name": "eyes",
                            "type": "uint48"
                        },
                        {
                            "internalType": "uint48",
                            "name": "mouth",
                            "type": "uint48"
                        },
                        {
                            "internalType": "uint48",
                            "name": "accessory",
                            "type": "uint48"
                        },
                        {
                            "internalType": "uint48",
                            "name": "bgItem",
                            "type": "uint48"
                        },
                        {
                            "internalType": "uint48",
                            "name": "hat",
                            "type": "uint48"
                        },
                        {
                            "internalType": "bool",
                            "name": "oneOfOne",
                            "type": "bool"
                        },
                        {
                            "internalType": "uint48",
                            "name": "oneOfOneIndex",
                            "type": "uint48"
                        }
                    ],
                    "internalType": "struct ISeeder.Seed",
                    "name": "seed",
                    "type": "tuple"
                }
            ],
            "name": "tokenURI",
            "outputs": [
                {
                    "internalType": "string",
                    "name": "",
                    "type": "string"
                }
            ],
            "stateMutability": "view",
            "type": "function"
        },
        {
            "inputs": [
                {
                    "internalType": "address",
                    "name": "newOwner",
                    "type": "address"
                }
            ],
            "name": "transferOwnership",
            "outputs": [],
            "stateMutability": "nonpayable",
            "type": "function"
        }
    ],
    "bytecode": "0x60806040526000805460ff60a81b1916600160a81b1790553480156200002457600080fd5b50620000303362000036565b62000086565b600080546001600160a01b038381166001600160a01b0319831681178455604051919092169283917f8be0079c531659141344cd1fd0a4f28419497f9722a3daafe3b4186f6b6457e09190a35050565b613ca180620000966000396000f3fe608060405234801561001057600080fd5b50600436106103575760003560e01c806381d69f09116101c8578063c114543b11610104578063e1bf8c51116100a2578063f2fde38b1161007c578063f2fde38b146106cc578063f9da8863146106df578063fbb4aeff146106f2578063fcbc920c1461070557600080fd5b8063e1bf8c5114610693578063e74ff30f146106a6578063ee50c646146106b957600080fd5b8063c50b7bc8116100de578063c50b7bc814610649578063ce2f4f5314610652578063dce72c2314610678578063dfe8478b1461068b57600080fd5b8063c114543b14610610578063c2deb8ec14610623578063c48db0db1461063657600080fd5b8063a3053dd511610171578063b48f35d21161014b578063b48f35d2146105c4578063ba58353d146105d7578063bca747b5146105ea578063bcd4de17146105fd57600080fd5b8063a3053dd514610596578063a7cde8b3146105a9578063ad1a4c3d146105bc57600080fd5b80638da5cb5b116101a25780638da5cb5b1461054857806390f1d5dc1461057057806391b7916a1461058357600080fd5b806381d69f091461050f578063839644da1461052257806383cbdb021461053557600080fd5b806355f804b311610297578063715018a61161024057806380ebc0621161021a57806380ebc062146104ce5780638104468c146104e1578063814146bf146104e957806381d23bd2146104fc57600080fd5b8063715018a61461048f57806371aaa66b14610497578063773b9771146104aa57600080fd5b80636b0be887116102715780636b0be8871461046c5780636b4311571461047f5780636c0360eb1461048757600080fd5b806355f804b314610433578063598fa9da146104465780635e70664c1461045957600080fd5b80632db2ede5116103045780634531c0a8116102de5780634531c0a8146104085780634daebac21461041057806350271c161461041857806353632ff11461042057600080fd5b80632db2ede5146103cf57806340a29775146103e2578063440b57d2146103f557600080fd5b806317b552ab1161033557806317b552ab146103ac5780632a1d0769146103bf5780632c6be7cb146103c757600080fd5b80630475d8631461035c57806304bde4dd146103715780630de518661461039a575b600080fd5b61036f61036a3660046132c8565b61070d565b005b61038461037f366004613441565b610821565b6040516103919190613819565b60405180910390f35b6008545b604051908152602001610391565b61036f6103ba36600461330a565b6108cd565b61036f61099c565b60055461039e565b6103846103dd366004613441565b610ab4565b6103846103f036600461345a565b610ac4565b61036f6104033660046132c8565b610b84565b60035461039e565b60065461039e565b600b5461039e565b61036f61042e36600461330a565b610c8e565b61036f61044136600461330a565b610d59565b610384610454366004613521565b610e0a565b61036f61046736600461330a565b610e42565b61038461047a366004613441565b610f0d565b60075461039e565b610384610f1d565b61036f610f2a565b61036f6104a536600461330a565b610f9d565b6000546104be90600160a01b900460ff1681565b6040519015158152602001610391565b6103846104dc366004613441565b611068565b60095461039e565b6103846104f73660046133ae565b611078565b61038461050a36600461345a565b6111ef565b61036f61051d3660046132c8565b61125a565b61036f610530366004613488565b61137f565b61036f61054336600461330a565b6114cc565b60005460405173ffffffffffffffffffffffffffffffffffffffff9091168152602001610391565b61038461057e366004613441565b611597565b61036f6105913660046132c8565b6115a7565b6103846105a4366004613441565b6116b1565b61036f6105b73660046132c8565b6116c1565b60045461039e565b61036f6105d23660046132c8565b6117cb565b61036f6105e53660046132c8565b6118d5565b6103846105f8366004613441565b6119df565b61038461060b366004613424565b6119ef565b61036f61061e3660046132c8565b611b58565b610384610631366004613441565b611c62565b61036f61064436600461330a565b611c72565b61039e600c5481565b6000546104be907501000000000000000000000000000000000000000000900460ff1681565b61036f61068636600461330a565b611d3d565b61036f611e08565b6103846106a1366004613441565b611ef2565b61036f6106b436600461330a565b611f02565b61036f6106c73660046132c8565b611fe6565b61036f6106da366004613292565b6120f0565b61036f6106ed3660046134db565b6121ec565b61036f61070036600461330a565b6122e6565b600a5461039e565b60005473ffffffffffffffffffffffffffffffffffffffff1633146107795760405162461bcd60e51b815260206004820181905260248201527f4f776e61626c653a2063616c6c6572206973206e6f7420746865206f776e657260448201526064015b60405180910390fd5b600054600160a01b900460ff16156107d35760405162461bcd60e51b815260206004820152601060248201527f506172747320617265206c6f636b6564000000000000000000000000000000006044820152606401610770565b60005b8181101561081c5761080a8383838181106107f3576107f3613c0d565b90506020028101906108059190613955565b6123b1565b8061081481613b62565b9150506107d6565b505050565b6003818154811061083157600080fd5b90600052602060002001600091509050805461084c90613b0e565b80601f016020809104026020016040519081016040528092919081815260200182805461087890613b0e565b80156108c55780601f1061089a576101008083540402835291602001916108c5565b820191906000526020600020905b8154815290600101906020018083116108a857829003601f168201915b505050505081565b60005473ffffffffffffffffffffffffffffffffffffffff1633146109345760405162461bcd60e51b815260206004820181905260248201527f4f776e61626c653a2063616c6c6572206973206e6f7420746865206f776e65726044820152606401610770565b600054600160a01b900460ff161561098e5760405162461bcd60e51b815260206004820152601060248201527f506172747320617265206c6f636b6564000000000000000000000000000000006044820152606401610770565b61099882826123b1565b5050565b60005473ffffffffffffffffffffffffffffffffffffffff163314610a035760405162461bcd60e51b815260206004820181905260248201527f4f776e61626c653a2063616c6c6572206973206e6f7420746865206f776e65726044820152606401610770565b600054600160a01b900460ff1615610a5d5760405162461bcd60e51b815260206004820152601060248201527f506172747320617265206c6f636b6564000000000000000000000000000000006044820152606401610770565b600080547fffffffffffffffffffffff00ffffffffffffffffffffffffffffffffffffffff16600160a01b1781556040517f1680ee6d421f70ed6030d2fc4fcb50217a5dd617858d56562b119eca59172e579190a1565b6004818154811061083157600080fd5b60606000610ad1846123ee565b9050600081604051602001610ae691906136bd565b60408051601f19818403018152602083019091526000825261010086015190925015610b4a5782610b2386610120015165ffffffffffff16612528565b604051602001610b3492919061376e565b6040516020818303038152906040529050610b6d565b82604051602001610b5b9190613702565b60405160208183030381529060405290505b610b78828287611078565b93505050505b92915050565b60005473ffffffffffffffffffffffffffffffffffffffff163314610beb5760405162461bcd60e51b815260206004820181905260248201527f4f776e61626c653a2063616c6c6572206973206e6f7420746865206f776e65726044820152606401610770565b600054600160a01b900460ff1615610c455760405162461bcd60e51b815260206004820152601060248201527f506172747320617265206c6f636b6564000000000000000000000000000000006044820152606401610770565b60005b8181101561081c57610c7c838383818110610c6557610c65613c0d565b9050602002810190610c779190613955565b612685565b80610c8681613b62565b915050610c48565b60005473ffffffffffffffffffffffffffffffffffffffff163314610cf55760405162461bcd60e51b815260206004820181905260248201527f4f776e61626c653a2063616c6c6572206973206e6f7420746865206f776e65726044820152606401610770565b600054600160a01b900460ff1615610d4f5760405162461bcd60e51b815260206004820152601060248201527f506172747320617265206c6f636b6564000000000000000000000000000000006044820152606401610770565b61099882826126c2565b60005473ffffffffffffffffffffffffffffffffffffffff163314610dc05760405162461bcd60e51b815260206004820181905260248201527f4f776e61626c653a2063616c6c6572206973206e6f7420746865206f776e65726044820152606401610770565b610dcc60018383612ff2565b507f6741b2fc379fad678116fe3d4d4b9a1a184ab53ba36b86ad0fa66340b1ab41ad8282604051610dfe92919061382c565b60405180910390a15050565b60026020528160005260406000208181548110610e2657600080fd5b9060005260206000200160009150915050805461084c90613b0e565b60005473ffffffffffffffffffffffffffffffffffffffff163314610ea95760405162461bcd60e51b815260206004820181905260248201527f4f776e61626c653a2063616c6c6572206973206e6f7420746865206f776e65726044820152606401610770565b600054600160a01b900460ff1615610f035760405162461bcd60e51b815260206004820152601060248201527f506172747320617265206c6f636b6564000000000000000000000000000000006044820152606401610770565b61099882826126ff565b6007818154811061083157600080fd5b6001805461084c90613b0e565b60005473ffffffffffffffffffffffffffffffffffffffff163314610f915760405162461bcd60e51b815260206004820181905260248201527f4f776e61626c653a2063616c6c6572206973206e6f7420746865206f776e65726044820152606401610770565b610f9b600061273c565b565b60005473ffffffffffffffffffffffffffffffffffffffff1633146110045760405162461bcd60e51b815260206004820181905260248201527f4f776e61626c653a2063616c6c6572206973206e6f7420746865206f776e65726044820152606401610770565b600054600160a01b900460ff161561105e5760405162461bcd60e51b815260206004820152601060248201527f506172747320617265206c6f636b6564000000000000000000000000000000006044820152606401610770565b6109988282612685565b600b818154811061083157600080fd5b60606000604051806080016040528086815260200185815260200161109c856127b1565b81526020016003856000015165ffffffffffff16815481106110c0576110c0613c0d565b9060005260206000200180546110d590613b0e565b80601f016020809104026020016040519081016040528092919081815260200182805461110190613b0e565b801561114e5780601f106111235761010080835404028352916020019161114e565b820191906000526020600020905b81548152906001019060200180831161113157829003601f168201915b5050505050815250905073__$ca3b859211b1a9a5742dc282f70bfa123b$__63bf1deae28260026040518363ffffffff1660e01b81526004016111929291906138c2565b60006040518083038186803b1580156111aa57600080fd5b505af41580156111be573d6000803e3d6000fd5b505050506040513d6000823e601f3d908101601f191682016040526111e69190810190613340565b95945050505050565b6000546060907501000000000000000000000000000000000000000000900460ff1615611227576112208383610ac4565b9050610b7e565b6001611232846123ee565b6040516020016112439291906135e8565b604051602081830303815290604052905092915050565b60005473ffffffffffffffffffffffffffffffffffffffff1633146112c15760405162461bcd60e51b815260206004820181905260248201527f4f776e61626c653a2063616c6c6572206973206e6f7420746865206f776e65726044820152606401610770565b600054600160a01b900460ff161561131b5760405162461bcd60e51b815260206004820152601060248201527f506172747320617265206c6f636b6564000000000000000000000000000000006044820152606401610770565b81819050600c60008282546113309190613a3d565b90915550600090505b8181101561081c5761136d83838381811061135657611356613c0d565b90506020028101906113689190613955565b612e98565b8061137781613b62565b915050611339565b60005473ffffffffffffffffffffffffffffffffffffffff1633146113e65760405162461bcd60e51b815260206004820181905260248201527f4f776e61626c653a2063616c6c6572206973206e6f7420746865206f776e65726044820152606401610770565b60ff831660009081526002602052604090205461010090611408908390613a3d565b111561147c5760405162461bcd60e51b815260206004820152602160248201527f50616c65747465732063616e206f6e6c7920686f6c642032353620636f6c6f7260448201527f73000000000000000000000000000000000000000000000000000000000000006064820152608401610770565b60005b818110156114c6576114b48484848481811061149d5761149d613c0d565b90506020028101906114af9190613955565b612ed5565b806114be81613b62565b91505061147f565b50505050565b60005473ffffffffffffffffffffffffffffffffffffffff1633146115335760405162461bcd60e51b815260206004820181905260248201527f4f776e61626c653a2063616c6c6572206973206e6f7420746865206f776e65726044820152606401610770565b600054600160a01b900460ff161561158d5760405162461bcd60e51b815260206004820152601060248201527f506172747320617265206c6f636b6564000000000000000000000000000000006044820152606401610770565b6109988282612f02565b6008818154811061083157600080fd5b60005473ffffffffffffffffffffffffffffffffffffffff16331461160e5760405162461bcd60e51b815260206004820181905260248201527f4f776e61626c653a2063616c6c6572206973206e6f7420746865206f776e65726044820152606401610770565b600054600160a01b900460ff16156116685760405162461bcd60e51b815260206004820152601060248201527f506172747320617265206c6f636b6564000000000000000000000000000000006044820152606401610770565b60005b8181101561081c5761169f83838381811061168857611688613c0d565b905060200281019061169a9190613955565b6126ff565b806116a981613b62565b91505061166b565b6009818154811061083157600080fd5b60005473ffffffffffffffffffffffffffffffffffffffff1633146117285760405162461bcd60e51b815260206004820181905260248201527f4f776e61626c653a2063616c6c6572206973206e6f7420746865206f776e65726044820152606401610770565b600054600160a01b900460ff16156117825760405162461bcd60e51b815260206004820152601060248201527f506172747320617265206c6f636b6564000000000000000000000000000000006044820152606401610770565b60005b8181101561081c576117b98383838181106117a2576117a2613c0d565b90506020028101906117b49190613955565b612f02565b806117c381613b62565b915050611785565b60005473ffffffffffffffffffffffffffffffffffffffff1633146118325760405162461bcd60e51b815260206004820181905260248201527f4f776e61626c653a2063616c6c6572206973206e6f7420746865206f776e65726044820152606401610770565b600054600160a01b900460ff161561188c5760405162461bcd60e51b815260206004820152601060248201527f506172747320617265206c6f636b6564000000000000000000000000000000006044820152606401610770565b60005b8181101561081c576118c38383838181106118ac576118ac613c0d565b90506020028101906118be9190613955565b612f3f565b806118cd81613b62565b91505061188f565b60005473ffffffffffffffffffffffffffffffffffffffff16331461193c5760405162461bcd60e51b815260206004820181905260248201527f4f776e61626c653a2063616c6c6572206973206e6f7420746865206f776e65726044820152606401610770565b600054600160a01b900460ff16156119965760405162461bcd60e51b815260206004820152601060248201527f506172747320617265206c6f636b6564000000000000000000000000000000006044820152606401610770565b60005b8181101561081c576119cd8383838181106119b6576119b6613c0d565b90506020028101906119c89190613955565b612f7c565b806119d781613b62565b915050611999565b600a818154811061083157600080fd5b606060006040518060400160405280611a07856127b1565b81526020016003856000015165ffffffffffff1681548110611a2b57611a2b613c0d565b906000526020600020018054611a4090613b0e565b80601f0160208091040260200160405190810160405280929190818152602001828054611a6c90613b0e565b8015611ab95780601f10611a8e57610100808354040283529160200191611ab9565b820191906000526020600020905b815481529060010190602001808311611a9c57829003601f168201915b5050505050815250905073__$ca3b859211b1a9a5742dc282f70bfa123b$__6366b8c2418260026040518363ffffffff1660e01b8152600401611afd92919061385b565b60006040518083038186803b158015611b1557600080fd5b505af4158015611b29573d6000803e3d6000fd5b505050506040513d6000823e601f3d908101601f19168201604052611b519190810190613340565b9392505050565b60005473ffffffffffffffffffffffffffffffffffffffff163314611bbf5760405162461bcd60e51b815260206004820181905260248201527f4f776e61626c653a2063616c6c6572206973206e6f7420746865206f776e65726044820152606401610770565b600054600160a01b900460ff1615611c195760405162461bcd60e51b815260206004820152601060248201527f506172747320617265206c6f636b6564000000000000000000000000000000006044820152606401610770565b60005b8181101561081c57611c50838383818110611c3957611c39613c0d565b9050602002810190611c4b9190613955565b612fb9565b80611c5a81613b62565b915050611c1c565b6006818154811061083157600080fd5b60005473ffffffffffffffffffffffffffffffffffffffff163314611cd95760405162461bcd60e51b815260206004820181905260248201527f4f776e61626c653a2063616c6c6572206973206e6f7420746865206f776e65726044820152606401610770565b600054600160a01b900460ff1615611d335760405162461bcd60e51b815260206004820152601060248201527f506172747320617265206c6f636b6564000000000000000000000000000000006044820152606401610770565b6109988282612f7c565b60005473ffffffffffffffffffffffffffffffffffffffff163314611da45760405162461bcd60e51b815260206004820181905260248201527f4f776e61626c653a2063616c6c6572206973206e6f7420746865206f776e65726044820152606401610770565b600054600160a01b900460ff1615611dfe5760405162461bcd60e51b815260206004820152601060248201527f506172747320617265206c6f636b6564000000000000000000000000000000006044820152606401610770565b6109988282612f3f565b60005473ffffffffffffffffffffffffffffffffffffffff163314611e6f5760405162461bcd60e51b815260206004820181905260248201527f4f776e61626c653a2063616c6c6572206973206e6f7420746865206f776e65726044820152606401610770565b600080547fffffffffffffffffffff00ffffffffffffffffffffffffffffffffffffffffff811675010000000000000000000000000000000000000000009182900460ff1615918202179091556040518181527f360c3d72ee193226275b842f85231c259c934e85459fed80fa68e502ffa9dbde9060200160405180910390a150565b6005818154811061083157600080fd5b60005473ffffffffffffffffffffffffffffffffffffffff163314611f695760405162461bcd60e51b815260206004820181905260248201527f4f776e61626c653a2063616c6c6572206973206e6f7420746865206f776e65726044820152606401610770565b600054600160a01b900460ff1615611fc35760405162461bcd60e51b815260206004820152601060248201527f506172747320617265206c6f636b6564000000000000000000000000000000006044820152606401610770565b6001600c6000828254611fd69190613a3d565b9091555061099890508282612e98565b60005473ffffffffffffffffffffffffffffffffffffffff16331461204d5760405162461bcd60e51b815260206004820181905260248201527f4f776e61626c653a2063616c6c6572206973206e6f7420746865206f776e65726044820152606401610770565b600054600160a01b900460ff16156120a75760405162461bcd60e51b815260206004820152601060248201527f506172747320617265206c6f636b6564000000000000000000000000000000006044820152606401610770565b60005b8181101561081c576120de8383838181106120c7576120c7613c0d565b90506020028101906120d99190613955565b6126c2565b806120e881613b62565b9150506120aa565b60005473ffffffffffffffffffffffffffffffffffffffff1633146121575760405162461bcd60e51b815260206004820181905260248201527f4f776e61626c653a2063616c6c6572206973206e6f7420746865206f776e65726044820152606401610770565b73ffffffffffffffffffffffffffffffffffffffff81166121e05760405162461bcd60e51b815260206004820152602660248201527f4f776e61626c653a206e6577206f776e657220697320746865207a65726f206160448201527f64647265737300000000000000000000000000000000000000000000000000006064820152608401610770565b6121e98161273c565b50565b60005473ffffffffffffffffffffffffffffffffffffffff1633146122535760405162461bcd60e51b815260206004820181905260248201527f4f776e61626c653a2063616c6c6572206973206e6f7420746865206f776e65726044820152606401610770565b60ff83811660009081526002602052604090205411156122db5760405162461bcd60e51b815260206004820152602160248201527f50616c65747465732063616e206f6e6c7920686f6c642032353620636f6c6f7260448201527f73000000000000000000000000000000000000000000000000000000000000006064820152608401610770565b61081c838383612ed5565b60005473ffffffffffffffffffffffffffffffffffffffff16331461234d5760405162461bcd60e51b815260206004820181905260248201527f4f776e61626c653a2063616c6c6572206973206e6f7420746865206f776e65726044820152606401610770565b600054600160a01b900460ff16156123a75760405162461bcd60e51b815260206004820152601060248201527f506172747320617265206c6f636b6564000000000000000000000000000000006044820152606401610770565b6109988282612fb9565b6006805460018101825560009190915261081c907ff652222313e28459528d920b65115c16c04f3efc82aaedc97be59f3f377c0d3f018383612ff2565b60608161242e57505060408051808201909152600181527f3000000000000000000000000000000000000000000000000000000000000000602082015290565b8160005b8115612458578061244281613b62565b91506124519050600a83613a7a565b9150612432565b60008167ffffffffffffffff81111561247357612473613c3c565b6040519080825280601f01601f19166020018201604052801561249d576020820181803683370190505b5090505b8415612520576124b2600183613acb565b91506124bf600a86613b9b565b6124ca906030613a3d565b60f81b8183815181106124df576124df613c0d565b60200101907effffffffffffffffffffffffffffffffffffffffffffffffffffffffffffff1916908160001a905350612519600a86613a7a565b94506124a1565b949350505050565b60608161256857505060408051808201909152600181527f3000000000000000000000000000000000000000000000000000000000000000602082015290565b8160005b8115612592578061257c81613b62565b915061258b9050600a83613a7a565b915061256c565b60008167ffffffffffffffff8111156125ad576125ad613c3c565b6040519080825280601f01601f1916602001820160405280156125d7576020820181803683370190505b509050815b851561267c576125ed600182613acb565b905060006125fc600a88613a7a565b61260790600a613a8e565b6126119088613acb565b61261c906030613a55565b905060008160f81b90508084848151811061263957612639613c0d565b60200101907effffffffffffffffffffffffffffffffffffffffffffffffffffffffffffff1916908160001a905350612673600a89613a7a565b975050506125dc565b50949350505050565b6008805460018101825560009190915261081c907ff3f7a9fe364faab93b216da50a3214154f22a0a2b415b23a84c8169e8b636ee3018383612ff2565b6004805460018101825560009190915261081c907f8a35acfbc15ff81a39ae7d344fd709f28e8600b4aa8c65c6b64bfe7fe36bd19b018383612ff2565b6003805460018101825560009190915261081c907fc2575a0e9e593c00f959f8c92f12db2869c3395a3b0502d05e2516446f71f85b018383612ff2565b6000805473ffffffffffffffffffffffffffffffffffffffff8381167fffffffffffffffffffffffff0000000000000000000000000000000000000000831681178455604051919092169283917f8be0079c531659141344cd1fd0a4f28419497f9722a3daafe3b4186f6b6457e09190a35050565b6060816101000151156128c357604080516001808252818301909252600091816020015b60608152602001906001900390816127d5579050509050600b83610120015165ffffffffffff168154811061280c5761280c613c0d565b90600052602060002001805461282190613b0e565b80601f016020809104026020016040519081016040528092919081815260200182805461284d90613b0e565b801561289a5780601f1061286f5761010080835404028352916020019161289a565b820191906000526020600020905b81548152906001019060200180831161287d57829003601f168201915b5050505050816000815181106128b2576128b2613c0d565b602090810291909101015292915050565b6040805160078082526101008201909252600091816020015b60608152602001906001900390816128dc5790505090506004836020015165ffffffffffff168154811061291257612912613c0d565b90600052602060002001805461292790613b0e565b80601f016020809104026020016040519081016040528092919081815260200182805461295390613b0e565b80156129a05780601f10612975576101008083540402835291602001916129a0565b820191906000526020600020905b81548152906001019060200180831161298357829003601f168201915b5050505050816000815181106129b8576129b8613c0d565b60200260200101819052506005836040015165ffffffffffff16815481106129e2576129e2613c0d565b9060005260206000200180546129f790613b0e565b80601f0160208091040260200160405190810160405280929190818152602001828054612a2390613b0e565b8015612a705780601f10612a4557610100808354040283529160200191612a70565b820191906000526020600020905b815481529060010190602001808311612a5357829003601f168201915b505050505081600181518110612a8857612a88613c0d565b60200260200101819052506009836060015165ffffffffffff1681548110612ab257612ab2613c0d565b906000526020600020018054612ac790613b0e565b80601f0160208091040260200160405190810160405280929190818152602001828054612af390613b0e565b8015612b405780601f10612b1557610100808354040283529160200191612b40565b820191906000526020600020905b815481529060010190602001808311612b2357829003601f168201915b505050505081600281518110612b5857612b58613c0d565b60200260200101819052506008836080015165ffffffffffff1681548110612b8257612b82613c0d565b906000526020600020018054612b9790613b0e565b80601f0160208091040260200160405190810160405280929190818152602001828054612bc390613b0e565b8015612c105780601f10612be557610100808354040283529160200191612c10565b820191906000526020600020905b815481529060010190602001808311612bf357829003601f168201915b505050505081600381518110612c2857612c28613c0d565b602002602001018190525060068360a0015165ffffffffffff1681548110612c5257612c52613c0d565b906000526020600020018054612c6790613b0e565b80601f0160208091040260200160405190810160405280929190818152602001828054612c9390613b0e565b8015612ce05780601f10612cb557610100808354040283529160200191612ce0565b820191906000526020600020905b815481529060010190602001808311612cc357829003601f168201915b505050505081600481518110612cf857612cf8613c0d565b602002602001018190525060078360c0015165ffffffffffff1681548110612d2257612d22613c0d565b906000526020600020018054612d3790613b0e565b80601f0160208091040260200160405190810160405280929190818152602001828054612d6390613b0e565b8015612db05780601f10612d8557610100808354040283529160200191612db0565b820191906000526020600020905b815481529060010190602001808311612d9357829003601f168201915b505050505081600581518110612dc857612dc8613c0d565b6020026020010181905250600a8360e0015165ffffffffffff1681548110612df257612df2613c0d565b906000526020600020018054612e0790613b0e565b80601f0160208091040260200160405190810160405280929190818152602001828054612e3390613b0e565b8015612e805780601f10612e5557610100808354040283529160200191612e80565b820191906000526020600020905b815481529060010190602001808311612e6357829003601f168201915b5050505050816006815181106128b2576128b2613c0d565b600b805460018101825560009190915261081c907f0175b7a638427703f0dbe7bb9bbf987a2551717b34e79f33b5b1008d1fa01db9018383612ff2565b60ff831660009081526002602090815260408220805460018101825590835291206114c691018383612ff2565b600a805460018101825560009190915261081c907fc65a7bb8d6351c1cf70c95a316cc6a92839c986682d98bc35f958f4883f9d2a8018383612ff2565b6009805460018101825560009190915261081c907f6e1540171b6c0c960b71a7020d9f60077f6af931a8bbf590da0223dacf75c7af018383612ff2565b6007805460018101825560009190915261081c907fa66cc928b5edb82af9bd49922954155ab7b0942694bea4ce44661d9a8736c688018383612ff2565b6005805460018101825560009190915261081c907f036b6384b5eca791c62761152d0c79bb0604c104a5fb6f4eb0703f3154bb3db00183835b828054612ffe90613b0e565b90600052602060002090601f0160209004810192826130205760008555613084565b82601f10613057578280017fffffffffffffffffffffffffffffffffffffffffffffffffffffffffffffff00823516178555613084565b82800160010185558215613084579182015b82811115613084578235825591602001919060010190613069565b50613090929150613094565b5090565b5b808211156130905760008155600101613095565b60008083601f8401126130bb57600080fd5b50813567ffffffffffffffff8111156130d357600080fd5b6020830191508360208260051b85010111156130ee57600080fd5b9250929050565b8035801515811461310557600080fd5b919050565b60008083601f84011261311c57600080fd5b50813567ffffffffffffffff81111561313457600080fd5b6020830191508360208285010111156130ee57600080fd5b600082601f83011261315d57600080fd5b813561317061316b82613a15565b6139e4565b81815284602083860101111561318557600080fd5b816020850160208301376000918101602001919091529392505050565b600061014082840312156131b557600080fd5b6131bd6139ba565b90506131c88261326b565b81526131d66020830161326b565b60208201526131e76040830161326b565b60408201526131f86060830161326b565b60608201526132096080830161326b565b608082015261321a60a0830161326b565b60a082015261322b60c0830161326b565b60c082015261323c60e0830161326b565b60e082015261010061324f8184016130f5565b9082015261012061326183820161326b565b9082015292915050565b803565ffffffffffff8116811461310557600080fd5b803560ff8116811461310557600080fd5b6000602082840312156132a457600080fd5b813573ffffffffffffffffffffffffffffffffffffffff81168114611b5157600080fd5b600080602083850312156132db57600080fd5b823567ffffffffffffffff8111156132f257600080fd5b6132fe858286016130a9565b90969095509350505050565b6000806020838503121561331d57600080fd5b823567ffffffffffffffff81111561333457600080fd5b6132fe8582860161310a565b60006020828403121561335257600080fd5b815167ffffffffffffffff81111561336957600080fd5b8201601f8101841361337a57600080fd5b805161338861316b82613a15565b81815285602083850101111561339d57600080fd5b6111e6826020830160208601613ae2565b600080600061018084860312156133c457600080fd5b833567ffffffffffffffff808211156133dc57600080fd5b6133e88783880161314c565b945060208601359150808211156133fe57600080fd5b5061340b8682870161314c565b92505061341b85604086016131a2565b90509250925092565b6000610140828403121561343757600080fd5b611b5183836131a2565b60006020828403121561345357600080fd5b5035919050565b600080610160838503121561346e57600080fd5b8235915061347f84602085016131a2565b90509250929050565b60008060006040848603121561349d57600080fd5b6134a684613281565b9250602084013567ffffffffffffffff8111156134c257600080fd5b6134ce868287016130a9565b9497909650939450505050565b6000806000604084860312156134f057600080fd5b6134f984613281565b9250602084013567ffffffffffffffff81111561351557600080fd5b6134ce8682870161310a565b6000806040838503121561353457600080fd5b61353d83613281565b946020939093013593505050565b600081518084526020808501808196508360051b8101915082860160005b858110156135935782840389526135818483516135a0565b98850198935090840190600101613569565b5091979650505050505050565b600081518084526135b8816020860160208601613ae2565b601f01601f19169290920160200192915050565b600081516135de818560208601613ae2565b9290920192915050565b600080845481600182811c91508083168061360457607f831692505b602080841082141561363d577f4e487b710000000000000000000000000000000000000000000000000000000086526022600452602486fd5b8180156136515760018114613680576136ad565b7fffffffffffffffffffffffffffffffffffffffffffffffffffffffffffffff008616895284890196506136ad565b60008b81526020902060005b868110156136a55781548b82015290850190830161368c565b505084890196505b5050505050506111e681856135cc565b7f57697a61726420000000000000000000000000000000000000000000000000008152600082516136f5816007850160208701613ae2565b9190910160070192915050565b7f57697a617264200000000000000000000000000000000000000000000000000081526000825161373a816007850160208701613ae2565b7f2069732061206d656d626572206f66207468652057697a6172647344414f00006007939091019283015250602501919050565b7f57697a61726420000000000000000000000000000000000000000000000000008152600083516137a6816007850160208801613ae2565b7f20697320312f312061727470696563652000000000000000000000000000000060079184019182015283516137e3816018840160208801613ae2565b7f20616e642061206d656d626572206f66207468652057697a6172647344414f0060189290910191820152603701949350505050565b602081526000611b5160208301846135a0565b60208152816020820152818360408301376000818301604090810191909152601f909201601f19160101919050565b6040815260008351604080840152613876608084018261354b565b905060208501517fffffffffffffffffffffffffffffffffffffffffffffffffffffffffffffffc08483030160608501526138b182826135a0565b925050508260208301529392505050565b6040815260008351608060408401526138de60c08401826135a0565b905060208501517fffffffffffffffffffffffffffffffffffffffffffffffffffffffffffffffc08085840301606086015261391a83836135a0565b92506040870151915080858403016080860152613937838361354b565b925060608701519150808584030160a0860152506138b182826135a0565b60008083357fffffffffffffffffffffffffffffffffffffffffffffffffffffffffffffffe184360301811261398a57600080fd5b83018035915067ffffffffffffffff8211156139a557600080fd5b6020019150368190038213156130ee57600080fd5b604051610140810167ffffffffffffffff811182821017156139de576139de613c3c565b60405290565b604051601f8201601f1916810167ffffffffffffffff81118282101715613a0d57613a0d613c3c565b604052919050565b600067ffffffffffffffff821115613a2f57613a2f613c3c565b50601f01601f191660200190565b60008219821115613a5057613a50613baf565b500190565b600060ff821660ff84168060ff03821115613a7257613a72613baf565b019392505050565b600082613a8957613a89613bde565b500490565b6000817fffffffffffffffffffffffffffffffffffffffffffffffffffffffffffffffff0483118215151615613ac657613ac6613baf565b500290565b600082821015613add57613add613baf565b500390565b60005b83811015613afd578181015183820152602001613ae5565b838111156114c65750506000910152565b600181811c90821680613b2257607f821691505b60208210811415613b5c577f4e487b7100000000000000000000000000000000000000000000000000000000600052602260045260246000fd5b50919050565b60007fffffffffffffffffffffffffffffffffffffffffffffffffffffffffffffffff821415613b9457613b94613baf565b5060010190565b600082613baa57613baa613bde565b500690565b7f4e487b7100000000000000000000000000000000000000000000000000000000600052601160045260246000fd5b7f4e487b7100000000000000000000000000000000000000000000000000000000600052601260045260246000fd5b7f4e487b7100000000000000000000000000000000000000000000000000000000600052603260045260246000fd5b7f4e487b7100000000000000000000000000000000000000000000000000000000600052604160045260246000fdfea264697066735822122021f6557b9a51a4282c1ca24eff86d120e767ae0318567f37e9474d093eb7f19964736f6c63430008060033",
    "linkReferences": {
        "contracts/internal/libs/NFTDescriptor.sol": {
            "NFTDescriptor": [
                {
                    "length": 20,
                    "start": 4592
                },
                {
                    "length": 20,
                    "start": 7003
                }
            ]
        }
    },
    "deployedLinkReferences": {
        "contracts/internal/libs/NFTDescriptor.sol": {
            "NFTDescriptor": [
                {
                    "length": 20,
                    "start": 4442
                },
                {
                    "length": 20,
                    "start": 6853
                }
            ]
        }
    }
}