{
    "_format": "hh-sol-artifact-1",
    "contractName": "LibPart",
    "sourceName": "contracts/external/rarible/LibPart.sol",
    "abi": [
        {
            "inputs": [],
            "name": "TYPE_HASH",
            "outputs": [
                {
                    "internalType": "bytes32",
                    "name": "",
                    "type": "bytes32"
                }
            ],
            "stateMutability": "view",
            "type": "function"
        }
    ],
    "bytecode": "0x60a6610038600b82828239805160001a607314602b57634e487b7160e01b600052600060045260246000fd5b30600052607381538281f3fe730000000000000000000000000000000000000000301460806040526004361060335760003560e01c806364d4c819146038575b600080fd5b605e7f397e04204c1e1a60ee8724b71f8244e10ab5f2e9009854d80f602bda21b59ebb81565b60405190815260200160405180910390f3fea2646970667358221220fa99be17e5b2c9d53ceca3a8a3e9924998c48ad1cd9ea8289544d52701efc18164736f6c63430008060033",
    "linkReferences": {},
    "deployedLinkReferences": {}
}